:03000000020B9858
:0100030032CA
:03000B00020614D6
:0100130032BA
:01001B0032B2
:0100230032AA
:03002B0002063694
:10002E0020202020202020202020202020202020C2
:10003E0000507265736574733A203120322033207C
:10004E00340053454C45435420746F20736B6970D4
:10005E002E200073544D503A7878782073544D45C5
:10006E003A78780072544D503A7878782072544D20
:10007E00453A78780053656C6563742050617261FF
:10008E006D6574657200536F616B2054656D703AC7
:10009E0020787878204300536F616B2054696D652A
:1000AE003A2078782020730052666C772054656D64
:1000BE00703A2078787820430052666C7720546925
:1000CE006D653A207878202073005265616479203E
:1000DE00746F2053746172742120002D2D2D2D2DDF
:1000EE005374617465302D2D2D2D2D003D3D5261C3
:1000FE006D7020546F20536F616B3D3D003D3D3D53
:10010E003D3D3D536F616B3D3D3D3D3D3D003D3DB4
:10011E0052616D7020546F205065616B3D3D003D06
:10012E003D3D3D3D5265666C6F773D3D3D3D3D002D
:10013E003D3D3D3D436F6F6C696E67213D3D3D3DDD
:10014E00002A2A2A2A2A41424F5254212A2A2A2A8E
:10015E002A0054494D453A58585854454D503A582E
:10016E005858005265666C6F7720436F6D706C65E2
:10017E007465210052535420322042616B65204138
:10018E006761696E005265666C6F772053746F708D
:10019E0070656421200054494D453A0054454D5038
:0201AE003A0015
:1001B000C00078BE00000000D8FAD00022C000C005
:1001C00001793278DFD8FED9FADAF6D001D00022F0
:1001D000D2911201B0C2911201B022A2E79281A283
:1001E000E69283A2E59285A2E492871201D0A2E36F
:1001F0009281A2E29283A2E19285A2E0928712010B
:10020000D022D2970201DBC2970201DBC291C00269
:100210007A281201BDD0027433120207743312021D
:100220000774321202077428120207740C120207B4
:100230007401120207C0027A021201BDD00222E448
:10024000936006120202A380F62244404480020218
:1002500007C0E0E8C4540F4430120202E8540F44CF
:0702600030120202D0E0227F
:10026700C0E0C0D0C000C001C002C06BC06AC06996
:10027700C068E4F570F571F572F573F5747A20E5E9
:100287006BA2E779047868E633F608D9FA79057836
:1002970070E636D4F608D9F9DAE5D068D069D06ABD
:1002A700D06BD002D001D000D0D0D0E022C0E0C0C7
:1002B700D0C000C001C002C074C073C072C071C09A
:1002C700707A207905C37874E613C0D030E702242A
:1002D700D030E30224FDF618D0D0D9EC7904786B3E
:1002E700E613F618D9FADADBD206E5707002C20611
:1002F700D070D071D072D073D074D002D001D0003A
:10030700D0D0D0E022C0E0C0D0E568256CF568E524
:1003170069356DF569E56A356EF56AE56B356FF533
:100327006B9206D0D0D0E022C0E0C0D0C3E568957C
:100337006CF568E569956DF569E56A956EF56AE5A9
:100347006B956FF56B9206D0D0D0E022C0E0C0D09D
:10035700C3E568956CE569956DE56A956EE56B95FE
:100367006F9206D0D0D0E022C0E0C0D0C3E56C9534
:1003770068E56D9569E56E956AE56F956B9206D0B0
:10038700D0D0E022C0E0C0D0C206C3E56C9568704B
:1003970014E56D9569700EE56E956A7008E56F95C1
:1003A7006B7002D206D0D0D0E02212038B20060356
:1003B70002036F2212038B20060302035322C0E0BD
:1003C700C0F0C0D0C000C001C002C003C004C00557
:1003D700E568856CF0A4F8A9F0E569856CF0A429B7
:1003E700F9E435F0FAE568856DF0A429F9E5F03A06
:1003F700FAE433FBE56A856CF0A42AFAE5F03BFBE7
:10040700E569856DF0A42AFAE5F03BFBE568856EA2
:10041700F0A42AFAE5F03BFBE56B856CF0A42BFB17
:10042700ACF07D00E56A856DF0A42BFBE5F03CFCA4
:10043700E43DFDE569856EF0A42BFBE5F03CFCE4AB
:100447003DFDE568856FF0A42BFBE5F03CFCE43D42
:10045700FDEC4DFCE56B856DF0A445F04CFCE56AC1
:10046700856EF0A445F04CFCE569856FF0A445F076
:100477004CFCE56B856EF0A445F04CFCE56A856F96
:10048700F0A445F04CFCE56B856FF0A445F04CFCFF
:100497008B6B8A6A89698868D206BC0002C206D05B
:1004A70005D004D003D002D001D000D0D0D0F0D0F6
:1004B700E022C0E0C0D0C000C001C002C003C00439
:1004C700E56C456D456E456F7005D206020524C281
:1004D700067C20E4F8F9FAFBC3E56833F568E569BB
:1004E70033F569E56A33F56AE56B33F56BE833F89D
:1004F700E933F9EA33FAEB33FBC3E8956CE9956D19
:10050700EA956EEB956F4013E8956CF8E9956DF9F0
:10051700EA956EFAEB956FFB436801DCBBD004D01C
:1005270003D002D001D000D0D0D0E02285686C85FE
:10053700696D856A6E856B6F22E568C56CF568E540
:1005470069C56DF569E56AC56EF56AE56BC56FF551
:100557006B22C28EE589540F4420F589758DFD7590
:100567008BFDE5874480F587D28E75985222853DAD
:1005770068853E69756A00756B00120267745412CC
:1005870005B5743D1205B5E571540F44301205B534
:10059700E570C4540F44301205B5E570540F44306C
:1005A7001205B5740D1205B5740A1205B5223099F6
:1005B700FDC299F59922E49360061205B5A380F66A
:1005C70022E624301205B522C0E0E8C4540F4430B7
:1005D7001205B5E8540F44301205B5D0E022C0002B
:1005E700A8711205CFD000C000A8701205CFD000A7
:1005F7009005FE1205BD220D0A00E58954F044015D
:10060700F589758CFD758A5AD2A9D28C22758CFD15
:10061700758A5AB2953275C80075CDF575CC2775B0
:10062700CBF575CA27E4F575F576D2ADD2CA22C2E5
:10063700CFC0E0C0D0C0F0C082C083C000C001C03E
:1006470002C003C004C005C006C0070575E5757084
:10065700020576E575B4E807E576B4030280030280
:1006670006B5D2020542B2E8E4F575F576120A8BB3
:10067700E5676005C2800214AEE530B40105120AD1
:10068700C58016B40305120AC5800EB40205120A06
:10069700998006B40403120A99E57720E80B240130
:1006A700E57720E804240180022499D4F577D00760
:1006B700D006D005D004D003D002D001D000D0831B
:1006C700D082D0F0D0D0D0E032759AAB759BF77559
:1006D7009C01759D0275A10075A18022C0E0C0D064
:1006E700C0F0C082C083C000C001C002C003C00404
:1006F700C005C006C0077402F5A11207F21208DC94
:10070700E5A3540FF53585A2367401F5A11207F25A
:100717001208DCE5A3540FF53785A238756B007511
:100727006A00853769853868756C14756D10756E44
:1007370000756F001203C5756F00756E0085356D06
:1007470085366C1204B9756CAA756D0A756E0075DD
:100757006F0012032F756C0A756D00756E00756F4B
:10076700001204B985693985683A7400F5A1120742
:10077700F21208DCE5A3540F756B00756A00F56982
:1007870085A268756C4D756D01756E00756F0012E9
:1007970003C5756F00756E0085356D85366C12045F
:1007A700B985693B85683C756F00756E0085396D45
:1007B700853A6C12030C85683D85693E756B00753B
:1007C7006A001202671205E5120A251207F2D0071E
:1007D700D006D005D004D003D002D001D000D083FA
:1007E700D082D0F0D0D0D0E0C20222781E794A7AE7
:1007F700FADAFED9FAD8F622C0F9A4B0999282F8AB
:1008070080908883C6A1868E9007FFE57345746044
:1008170004D2EF8002C2EF30FB2FE570540F93F53F
:1008270091E570C4540F93F592E571540F93F593C6
:10083700E571C4540F93F594E572540F93F58EE563
:1008470072C4540F93F58F8024E573540F93F59179
:10085700E573C4540F93F592E574540F93F593E53C
:1008670074C4540F93F594758EFF758FFF22780427
:10087700E531B40006E578B4031022B40206E57842
:10088700B4030722E578B4020122C3E57033F5709B
:10089700E57133F571E57233F572E57333F573E599
:1008A7007433F574D8E4EF4570F5700578D3227882
:1008B70004C3E57413F574E57313F573E57213F563
:1008C70072E57113F571E57013F570D8E4E578609A
:1008D700031578D322780F794A7AFADAFED9FAD84B
:1008E700F622439B54439C01539CAB539DFE22200D
:1008F700B73F1208DC20B73930B7FD1208B612022D
:10090700B4E531B400088568508569518021B40188
:10091700088568528569538016B40208856854852E
:100927006955800BB403088568568569578000C3ED
:1009370022C292C294C296C2A0A2A282A482A68216
:10094700B05002C3221208DCA2A282A482A682B0FF
:100957005002C322D292D294D296D2A0C29220A29F
:10096700077F0130A2FDD32220A4077F0230A4FD18
:10097700D32220A6077F0330A6FDD32220B0077F0E
:100987000A30B0FDD322D292C29420A2077F04304E
:10099700A2FDD32220A4077F0530A4FDD32220A6E1
:1009A700077F0630A6FDD32220B0077F0B30B0FDAE
:1009B700D322D294C29620A2077F0730A2FDD3226A
:1009C70020A4077F0830A4FDD32220A6077F093083
:1009D700A6FDD32220B0077F0C30B0FDD322D296DC
:1009E700C2A020A2077F0E30A2FDD32220A4077F3A
:1009F7000030A4FDD32220A6077F0F30A6FDD32207
:100A070020B0077F0D30B0FDD322D2A0C322C0F99A
:100A1700A4B0999282F880908883C6A1868EC0E0A0
:100A2700C0D0853D68853E69756A00756B00120206
:100A370067900A15E572C4540F93F58FE572540F4A
:100A470093F58EE571C4540F93F594E571540F93A4
:100A5700F593E570C4540F93F592E570540F93F531
:100A670091D0D0D0E02220B40B1207F220B405D2E7
:100A77000330B4FD2220B30B1207F220B305D204D2
:100A870030B3FD2230980AE599C298B4A50375677B
:100A97000122E54CC3940250027400F55DE54C2435
:100AA70002500274FFF55FE53DC3955D400AE53DE1
:100AB700C3955F6002500422D28022C28022E5647F
:100AC70004B406027400F564E54CC39565500274DE
:100AD70000F561E53DC395614010E53DC3954C5078
:100AE7000CE564C3956340088009D28022C2802246
:100AF700D28022C28022D28C7B071207F2DBFBC294
:100B07008C22C0E074011412024AD0E0C083C08274
:100B1700C0E09001A412023FD0E0D082D08385428A
:100B270068854369756A00756B00120267C0E074D7
:100B3700061412024AD0E0C000A871120251D00078
:100B4700C000A870120251D000C0E0740A1412024B
:100B57004AD0E0C083C082C0E09001AA12023FD011
:100B6700E0D082D083853D68853E69756A00756BE4
:100B770000120267C0E0740D1412024AD0E0C000F0
:100B8700A871120251D000C000A870120251D00003
:100B97002275817F1206D012060112061DD2AF12EE
:100BA700020C120559C202C200C205C280C28CE4FF
:100BB700C290C2B1753000753100754200753D00B5
:100BC70075440075463C754896754ADC754C00754A
:100BD7007000756800756900756A00756B0075505F
:100BE70096F55175523CF5537554DCF55575562DF0
:100BF700F557C0E074011412024CD0E0C083C082E4
:100C0700C0E090003F12023FD0E0D082D083C0E026
:100C170074011412024AD0E0C083C082C0E0900081
:100C27005012023FD0E0D082D083C203120A6D2057
:100C3700EF1F20EE4D20ED7B20EC1320030A20024E
:100C47000280E91206E380E4120AFD020DDB020CC2
:100C5700EC7550AA75524B7554E675562D120AFD60
:100C6700120D1E120A6D20030E30EF0520020E80B2
:100C7700F2120AFD020BF9120AFD0211B31206E382
:100C870080E17550A075525A7554E675563C120AA4
:100C9700FD120D1E120A6D20030E30EE0520020E06
:100CA70080F2120AFD020BF9120AFD0211B31206B5
:100CB700E380E175509675525F7554E175563C12A5
:100CC7000AFD120D1E120A6D20030E30ED052002DB
:100CD7000E80F2120AFD020BF9120AFD0211B3127D
:100CE70006E3020CCC7550B475523C7554EB75563F
:100CF7001E120AFD120D1E120A6D20030E30EC059E
:100D070020020E80F2120AFD020BF9120AFD0211EF
:100D1700B31206E3020CFEC0E0C0D0C0E0740114B9
:100D270012024CD0E0C083C082C0E0900061120282
:100D37003FD0E0D082D083C0E074011412024AD0C1
:100D4700E0C083C082C0E090007212023FD0E0D0C2
:100D570082D083855068855169120267C0E07406A6
:100D67001412024CD0E0C000A871120251D000C08A
:100D770000A870120251D000855268120267C0E0C5
:100D8700740F1412024CD0E0C000A870120251D0A8
:100D970000855468855569120267C0E0740614120D
:100DA700024AD0E0C000A871120251D000C000A8CA
:100DB70070120251D000855668120267C0E0740FA6
:100DC7001412024AD0E0C000A870120251D000D01D
:100DD700D0D0E022C0E074011412024CD0E0C083EE
:100DE700C082C0E090008312023FD0E0D082D0835F
:100DF700C0E074011412024AD0E0C083C082C0E090
:100E070090009412023FD0E0D082D083C203C20583
:100E170075780030B241AE31BE003F120A6D200333
:100E27003C20023C855068855169756A00756B00E6
:100E3700120267C0E0740C1412024AD0E0C000A886
:100E470071120251D000C000A870120251D00012D6
:100E57000A7C200461800F020B98020EF0020EE15B
:100E67001206E3020E1A1208F650A820050CD20546
:100E77007400F570F571F572F573120875509412D8
:100E870002B4856850856951855068855169756ACE
:100E970000756B00120267C0E0740C1412024AD08E
:100EA700E0C000A871120251D000C000A870120261
:100EB70051D000020E1AC204E55020E80B20E904C5
:100EC70024018011240A800D20E905C394018005BF
:100ED700C3940A8000F550020E1A120AFD0531C2AA
:100EE70003C205757800020E1AC0E07401141202DD
:100EF7004AD0E0C083C082C0E09000A512023FD074
:100F0700E0D082D083C203C20575780030B239AE13
:100F170031BE0137120A6D2003342002348552682E
:100F2700756900756A00756B00120267C0E0740C82
:100F37001412024AD0E0C000A870120251D0001269
:100F47000A7C200456020F5E020B98020FD5020F8F
:100F5700C61206E3020F131208F650B020050CD292
:100F6700057400F570F571F572F573120875509CEC
:100F77001202B4856852855268756900756A0075F2
:100F87006B00120267C0E0740C1412024AD0E0C072
:100F970000A870120251D000020F13C204E55220BC
:100FA700E80B20E90424018011240A800D20E905BB
:100FB700C394018005C3940A8000F552020F1312EF
:100FC7000AFD0531C203C205757800020F13C0E0A0
:100FD70074011412024AD0E0C083C082C0E09000BE
:100FE700B612023FD0E0D082D083C203C205757823
:100FF7000030B242AE31BE0240120A6D20033D20DE
:10100700023D855468855569756A00756B00120243
:1010170067C0E0740C1412024AD0E0C000A8711235
:101027000251D000C000A870120251D000120A7CF1
:1010370020046202104C020B980210CF0210C0125B
:1010470006E3020FF81208F650A720050CD2057424
:1010570000F570F571F572F5731208755093120269
:10106700B4856854856955855468855569756A00DE
:10107700756B00120267C0E0740C1412024AD0E0CC
:10108700C000A871120251D000C000A8701202510E
:10109700D000020FF8C204E55420E80B20E904242D
:1010A700018011240A800D20E905C394018005C33E
:1010B700940A8000F554020FF8120AFD0531C203A5
:1010C700C205757800020FF8C0E074011412024AD5
:1010D700D0E0C083C082C0E09000C712023FD0E0DA
:1010E700D082D083C203C20575780030B238AE31E2
:1010F700BE0336120A6D2003332002338556687506
:101107006900756A00756B00120267C0E0740C1401
:1011170012024AD0E0C000A870120251D000120A91
:101127007C200455800F020B980211B30211A41200
:1011370006E30210F21208F650B120050CD205742E
:1011470000F570F571F572F573120875509D12026E
:10115700B4856856855668756900756A00756B00B1
:10116700120267C0E0740C1412024AD0E0C000A853
:1011770070120251D0000210F2C204E55620E80BAB
:1011870020E90424018011240A800D20E905C39475
:10119700018005C3940A8000F5560210F2120AFD79
:1011A7000531C203C2057578000210F2C0E0740170
:1011B7001412024CD0E0C083C082C0E09000D81265
:1011C700023FD0E0D082D083C0E074011412024AFB
:1011D700D0E0C083C082C0E090002E12023FD0E072
:1011E700D082D083C203C204C205757800200229C9
:1011F70020B5FA1207F220B5F4C0E0740114120208
:101207004CD0E0C083C082C0E09000E912023FD01A
:10121700E0D082D083D20080051206E380CF30B7BA
:101227000FC280E530754200B4001E20000580EE35
:10123700021468120AFD75640075630475650A0572
:101247003075446475420080D530B23F30B73F20D7
:101257000234E530B4014DC0E074011412024CD0E1
:10126700E0C083C082C0E09000FA12023FD0E0D015
:1012770082D083120B091212FE85504CE53DC395AF
:101287004C400E02129E1206E380BE02145F021447
:10129700684002800280B2120AFD05307544147559
:1012A700420080A530B23F30B73F200231E530B46D
:1012B7000231C0E074011412024CD0E0C083C08236
:1012C700C0E090010B12023FD0E0D082D083120B16
:1012D7000985524EE542C3954E402502130D12066D
:1012E700E380C102132102145F021468E542B43C93
:1012F7000040030214AE22E53DB432012240ED2244
:1013070040028002809E120AFD75640075630475B1
:10131700650A05307544640212AB30B23C30B73C05
:10132700200231E530B4034AC0E074011412024CC4
:10133700D0E0C083C082C0E090011C12023FD0E021
:10134700D082D083120B0985544CE53DC3954C40A0
:101357000E02136C1206E380C102145F0214684088
:1013670002800280B5120AFD0530754414754200EB
:1013770080A830B23F30B739200231E530B4044796
:10138700C0E074011412024CD0E0C083C082C0E0F8
:1013970090012D12023FD0E0D082D083120B098535
:1013A700564EE542C3954E400E0213C41206E38023
:1013B700C102146802145F4002800280B5120AFD60
:1013C700053075440080AB30B23B30B73B2002306C
:1013D700C280E530B4053485464CE53DC0E0740174
:1013E7001412024CD0E0C083C082C0E090013E12CC
:1013F700023FD0E0D082D083120B09B43C4B80C7A8
:101407001206E380C202145F021468120AFDC0E0EC
:1014170074011412024CD0E0C083C082C0E0900176
:101427007112023FD0E0D082D083C0E07401141261
:10143700024AD0E0C083C082C0E090018212023F1E
:10144700D0E0D082D08302150A40028008753000B0
:10145700C2000213CE0213CE753000754400020B92
:1014670098D290C0E074011412024CD0E0C083C03F
:1014770082C0E090019312023FD0E0D082D083C0B7
:10148700E074011412024AD0E0C083C082C0E09029
:10149700018212023FD0E0D082D083120AFDC280BF
:1014A700C2AF30B25B80FBD290C0E074011412026D
:1014B7004CD0E0C083C082C0E090014F12023FD001
:1014C700E0D082D083C0E074011412024AD0E0C099
:1014D70083C082C0E090018212023FD0E0D082D068
:1014E700837C0A120AFD1207F21207F21207F212A0
:1014F70007F21207F2DCECC2AFC28030B20280FB07
:10150700020B98D2B17C05120AFD1207F21207F2FC
:101517001207F21207F21207F2DCEC30B20280FB7C
:0315270002145F4C
:00000001FF
