:030000000209D220
:0100030032CA
:03000B0002058C5F
:0100130032BA
:01001B0032B2
:0100230032AA
:03002B000205AE1D
:10002E0020202020202020202020202020202020C2
:10003E000053656C65637420506172616D65746503
:10004E007200536F616B2054656D703A207878782A
:10005E00204300536F616B2054696D653A207878A8
:10006E002020730052666C772054656D703A2078AC
:10007E00787820430052666C772054696D653A207B
:10008E00787820207300526561647920746F205354
:10009E00746172742120002D2D2D2D2D53746174D9
:1000AE0065302D2D2D2D2D002D2D2D2D2D537461C3
:1000BE007465312D2D2D2D2D002D2D2D2D2D53749F
:1000CE00617465322D2D2D2D2D002D2D2D2D2D53A1
:1000DE0074617465332D2D2D2D2D002D2D2D2D2D6F
:1000EE005374617465342D2D2D2D2D002D2D2D2D38
:1000FE002D5374617465352D2D2D2D2D002A2A2A30
:10010E002A2A41424F5254212A2A2A2A2A00544985
:10011E004D453A58585854454D503A585858005233
:10012E0065666C6F7720436F6D706C65746521002A
:10013E0052535420322042616B6520416761696ED3
:10014E00005265666C6F772053746F707065642112
:0E015E00200054494D453A0054454D503A009A
:10016C00C00078BE00000000D8FAD00022C000C049
:10017C0001793278DFD8FED9FADAF6D001D0002234
:10018C00D29112016CC29112016C22A2E79281A24F
:10019C00E69283A2E59285A2E4928712018CA2E3F7
:1001AC009281A2E29283A2E19285A2E0928712014F
:1001BC008C22D297020197C297020197C291C0027A
:1001CC007A28120179D00274331201C374331201EC
:1001DC00C374321201C374281201C3740C1201C30C
:1001EC0074011201C3C0027A02120179D00222E416
:1001FC009360061201BEA380F622444044800201A3
:10020C00C3C0E0E8C4540F44301201BEE8540F449C
:07021C00301201BED0E02208
:10022300C0E0C0D0C000C001C002C05EC05DC05C01
:10023300C05BE4F563F564F565F566F5677A20E57B
:100243005EA2E77904785BE633F608D9FA79057894
:1002530063E636D4F608D9F9DAE5D05BD05CD05D35
:10026300D05ED002D001D000D0D0D0E022C0E0C018
:10027300D0C000C001C002C067C066C065C064C012
:10028300637A207905C37867E613C0D030E7022488
:10029300D030E30224FDF618D0D0D9EC7904785E8F
:1002A300E613F618D9FADADBD206E5637002C20662
:1002B300D063D064D065D066D067D002D001D000BF
:1002C300D0D0D0E022C0E0C0D0E55B255FF55BE590
:1002D3005C3560F55CE55D3561F55DE55E3562F5E0
:1002E3005E9206D0D0D0E022C0E0C0D0C3E55B95DB
:1002F3005FF55BE55C9560F55CE55D9561F55DE556
:100303005E9562F55E9206D0D0D0E022C0E0C0D008
:10031300C3E55B955FE55C9560E55D9561E55E959D
:10032300629206D0D0D0E022C0E0C0D0C3E55F9592
:100333005BE560955CE561955DE562955E9206D04F
:10034300D0D0E022C0E0C0D0C206C3E55F955B70A9
:1003530014E560955C700EE561955D7008E5629546
:100363005E7002D206D0D0D0E022120347200603EB
:1003730002032B2212034720060302030F22C0E0CD
:10038300C0F0C0D0C000C001C002C003C004C0059B
:10039300E55B855FF0A4F8A9F0E55C855FF0A4292F
:1003A300F9E435F0FAE55B8560F0A429F9E5F03A64
:1003B300FAE433FBE55D855FF0A42AFAE5F03BFB45
:1003C300E55C8560F0A42AFAE5F03BFBE55B85611B
:1003D300F0A42AFAE5F03BFBE55E855FF0A42BFB76
:1003E300ACF07D00E55D8560F0A42BFBE5F03CFC03
:1003F300E43DFDE55C8561F0A42BFBE5F03CFCE40A
:100403003DFDE55B8562F0A42BFBE5F03CFCE43DA0
:10041300FDEC4DFCE55E8560F0A445F04CFCE55D2C
:100423008561F0A445F04CFCE55C8562F0A445F0E1
:100433004CFCE55E8561F0A445F04CFCE55D85620E
:10044300F0A445F04CFCE55E8562F0A445F04CFC5D
:100453008B5E8A5D895C885BD206BC0002C206D0D3
:1004630005D004D003D002D001D000D0D0D0F0D03A
:10047300E022C0E0C0D0C000C001C002C003C0047D
:10048300E55F4560456145627005D2060204E0C23E
:10049300067C20E4F8F9FAFBC3E55B33F55BE55C26
:1004A30033F55CE55D33F55DE55E33F55EE833F822
:1004B300E933F9EA33FAEB33FBC3E8955FE9956077
:1004C300EA9561EB95624013E8955FF8E99560F969
:1004D300EA9561FAEB9562FB435B01DCBBD004D088
:1004E30003D002D001D000D0D0D0E022855B5F855D
:1004F3005C60855D61855E6222E55BC55FF55BE5FA
:100503005CC560F55CE55DC561F55DE55EC562F5FD
:100513005E22C28EE589540F4420F589758DFD75E1
:100523008BFDE5874480F587D28E759852228535F9
:100533005B85365C755D00755E0012022374541290
:100543000571743D120571E564540F443012057151
:10055300E563C4540F4430120571E563540F44300E
:10056300120571740D120571740A12057122309906
:10057300FDC299F59922E58954F04401F589758CFA
:10058300FD758A5AD2A9D28C22758CFD758A5AB20E
:10059300953275C80075CDF575CC2775CBF575CA41
:1005A30027E4F568F569D2ADD2CA22C2CFC0E0C054
:1005B300D00568E56870020569E568B4E86DE5692A
:1005C300B4036875A100755E00755D0085A35C8545
:1005D300A25B755F88756013756100756200120315
:1005E30081755F0075601075610075620012047596
:1005F300755FE875600375610075620012038175AC
:100603005F0C756030756100756200120475755F6B
:10061300167560007561007562001202C8855B354E
:10062300855C3612053112088A8003020671D202F4
:10063300053AB2E8E4F568F569E530B40105120856
:10064300FF8016B4030512091B800EB402051208BD
:10065300D38006B404031208D3E56A20E80B24010F
:10066300E56A20E804240180022499D4F56AD0D0F5
:10067300D0E032759AAB759BF6759C01759D00753C
:10068300A10075A18022781E794A7AFADAFED9FA96
:10069300D8F622C0F9A4B0999282F880908883C6D4
:1006A300A1868E900696E56645676004D2EF8002C8
:1006B300C2EF30FB2FE563540F93F591E563C45408
:1006C3000F93F592E564540F93F593E564C4540FC7
:1006D30093F594E565540F93F58EE565C4540F9334
:1006E300F58F8024E566540F93F591E566C4540FA6
:1006F30093F592E567540F93F593E567C4540F930D
:10070300F594758EFF758FFF227804E531B40006EA
:10071300E56BB4031022B40206E56BB4030722E5CC
:100723006BB4020122C3E56333F563E56433F56417
:10073300E56533F565E56633F566E56733F567D853
:10074300E4EF4563F563056B22227804C3E5671381
:10075300F567E56613F566E56513F565E56413F579
:1007630064E56313F563D8E4E56B6002156B2278E7
:100773000F794A7AFADAFED9FAD8F622439B544320
:100783009C01539CAB539DFE2220B70E120772208F
:10079300B70830B7FD12074DC322C292C294C29666
:1007A300C2A0A2A282A482A682B05002C3221207D0
:1007B30072A2A282A482A682B05002C322D292D293
:1007C30094D296D2A0C29220A2077F0130A2FDD379
:1007D3002220A4077F0230A4FDD32220A6077F0393
:1007E30030A6FDD32220B0077F0A30B0FDD322D23A
:1007F30092C29420A2077F0430A2FDD32220A40733
:100803007F0530A4FDD32220A6077F0630A6FDD3A3
:100813002220B0077F0B30B0FDD322D294C29620A2
:10082300A2077F0730A2FDD32220A4077F0830A4AC
:10083300FDD32220A6077F0930A6FDD32220B007CF
:100843007F0C30B0FDD322D296C2A020A2077F0E28
:1008530030A2FDD32220A4077F0030A4FDD32220A1
:10086300A6077F0F30A6FDD32220B0077F0D30B03F
:10087300FDD322D2A0C322C0F9A4B0999282F880FA
:10088300908883C6A1868EC0E0C0D085355B85364F
:100893005C12022390087AE564540F93F593E563A1
:1008A300C4540F93F592E563540F93F591D0D0D0D0
:1008B300E02220B40B12068920B405D20330B4FD24
:1008C3002220B30B12068920B305D20430B3FD22D4
:1008D300E544C3940250027400F555E544240250E4
:1008E3000274FFF557E535C39555400AE535C395C1
:1008F300576002500422D28022C28022E544C3946E
:100903001450027400F559E535C3955940040209A2
:100913001822D28022C28022E544C3940450027478
:1009230000F559E535C39559400402093422D280B4
:1009330022C28022D28C7B07120689DBFBC28C2267
:10094300C0E0740114120206D0E0C083C082C0E08C
:100953009001601201FBD0E0D082D083853A5B85A1
:100963003B5C755D00755E00120223C0E0740614E3
:10097300120206D0E0C000A86412020DD000C0002D
:10098300A86312020DD000C0E0740B14120206D04B
:10099300E0C083C082C0E09001661201FBD0E0D0CA
:1009A30082D08385355B85365C755D00755E00128C
:1009B3000223C0E0740D14120206D0E0C000A86444
:1009C30012020DD000C000A86312020DD0002275E0
:1009D300817F120676120579120595D2AF1201C8EE
:1009E300120515C202C200C205C280C28C754896A8
:1009F300754A3C754CDC754E1E75300075310075BB
:100A03003A00753500753C00753E3C75409675425D
:100A1300DC754400756300C0E0740114120208D051
:100A2300E0C083C082C0E090003F1201FBD0E0D061
:100A330082D083C0E0740114120206D0E0C083C0E8
:100A430082C0E09000501201FBD0E0D082D083300E
:100A5300F95EE531B4005C1208B520037D85485B7F
:100A630085495C755D00755E00120223C0E0740C5D
:100A730014120206D0E0C000A86412020DD000C018
:100A830000A86312020DD0001208C4200428120724
:100A93008C50BC20050CD2057400E563E564E56564
:100AA300E56612070C120270855B48855C49809FDE
:100AB3000209D2020AEDC204E54820E80B20E9044A
:100AC30024018011240A800D20E905C394018005C7
:100AD300C3940A8000F548020A521209370531C24D
:100AE30003C2057400F56B020A52C0E074011412CC
:100AF3000206D0E0C083C082C0E09000611201FB17
:100B0300D0E0D082D08330F935E531B401621208E8
:100B1300B5200353854A5B755C00755D00755E0007
:100B2300120223C0E0740C14120206D0E0C000A825
:100B33006312020DD0001208C420040880C8020901
:100B4300D2020B73C204E54A20E80B20E904240116
:100B53008011240A800D20E905C394018005C39404
:100B63000A8000F54A809F1209370531C203809637
:100B7300C0E0740114120206D0E0C083C082C0E05A
:100B83009000721201FBD0E0D082D08330F93EE5B1
:100B930031B4026B1208B520035C854C5B854D5C58
:100BA300755D00755E00120223C0E0740C1412021E
:100BB30006D0E0C000A86412020DD000C000A863F4
:100BC30012020DD0001208C420040880BF0209D20B
:100BD300020C02C204E54C20E80B20E90424018046
:100BE30011240A800D20E905C394018005C3940AEA
:100BF3008000F54C80961209370531C203808DC001
:100C0300E0740114120206D0E0C083C082C0E090F9
:100C130000831201FBD0E0D082D08330F935E53177
:100C2300B403331208B5200353854E5B755C00751E
:100C33005D00755E00120223C0E0740C14120206FC
:100C4300D0E0C000A86312020DD0001208C4200433
:100C53000880C80209D2020C88C204E54E20E80BC2
:100C630020E90424018011240A800D20E905C3949E
:100C7300018005C3940A8000F54E809F1209370551
:100C830031C2038096C0E0740114120208D0E0C0A0
:100C930083C082C0E09000941201FBD0E0D082D0E8
:100CA30083C0E0740114120206D0E0C083C082C086
:100CB300E090002E1201FBD0E0D082D08320B5FD5E
:100CC30012068920B5F7C0E0740114120208D0E0BF
:100CD300C083C082C0E09000A51201FBD0E0D082A7
:100CE300D083D200800030B70CC280E530B4001549
:100CF30020000580F1020ECB1209370530753C64E4
:100D0300753A0080E130F93730B737E530B4014840
:100D1300C0E0740114120208D0E0C083C082C0E0B6
:100D23009000B61201FBD0E0D082D08312094312A7
:100D33000DA6854844E535C395444009020D4E028E
:100D43000EC2020ECB4002800280BA120937053070
:100D5300753C14753A0080AD30F93730B737E5305C
:100D6300B4022CC0E0740114120208D0E0C083C0A6
:100D730082C0E09000C71201FBD0E0D082D0831282
:100D83000943854A46E53AC395464020020DB5021C
:100D93000DC0020EC2020ECBE53AB43C0040030282
:100DA3000F0A22E535B432012240ED2240028002CF
:100DB30080A61209370530753C64020D5B30F934A7
:100DC30030B734E530B40345C0E0740114120208AF
:100DD300D0E0C083C082C0E09000D81201FBD0E015
:100DE300D082D083120943854C44E535C3954440F2
:100DF30009020E03020EC2020ECB4002800280BD26
:100E03001209370530753C14753A0080B030F93754
:100E130030B731E530B40442C0E074011412020863
:100E2300D0E0C083C082C0E09000E91201FBD0E0B3
:100E3300D082D083120943854E46E53AC395464096
:100E430009020E53020ECB020EC24002800280BD85
:100E53001209370530753C0080B330F96230B7684A
:100E6300C280E530B40529853E44E535C0E0740110
:100E730014120208D0E0C083C082C0E09000FA12CE
:100E830001FBD0E0D082D083120943B43C2480CA52
:100E9300120937C0E0740114120208D0E0C083C005
:100EA30082C0E090012D1201FBD0E0D082D08302FA
:100EB3000F6040028007753000C200809D809B75E3
:100EC3003000753C000209D2C0E07401141202081C
:100ED300D0E0C083C082C0E090014F1201FBD0E09C
:100EE300D082D083C0E0740114120206D0E0C08324
:100EF300C082C0E090013E1201FBD0E0D082D083DB
:100F0300C28030F95580FBC0E0740114120208D08E
:100F1300E0C083C082C0E090010B1201FBD0E0D09F
:100F230082D083C0E0740114120206D0E0C083C0F3
:100F330082C0E090013E1201FBD0E0D082D0837CDE
:100F43000A120937120689120689120689120689BE
:100F5300120689DCEC30F90280FB0209D2C0E0748E
:100F63000114120206D0E0C083C082C0E090013EAB
:100F73001201FBD0E0D082D0837C05120937120620
:100F830089120689120689120689120689DCEC3059
:070F9300F90280FB020EC20F
:00000001FF
