:030000000209E012
:0100030032CA
:03000B0002058C5F
:0100130032BA
:01001B0032B2
:0100230032AA
:03002B000205AE1D
:10002E0020202020202020202020202020202020C2
:10003E000053656C65637420506172616D65746503
:10004E007200536F616B2054656D703A207878782A
:10005E00204300536F616B2054696D653A207878A8
:10006E002020730052666C772054656D703A2078AC
:10007E00787820430052666C772054696D653A207B
:10008E00787820207300526561647920746F205354
:10009E00746172742120002D2D2D2D2D53746174D9
:1000AE0065302D2D2D2D2D002D2D2D2D2D537461C3
:1000BE007465312D2D2D2D2D002D2D2D2D2D53749F
:1000CE00617465322D2D2D2D2D002D2D2D2D2D53A1
:1000DE0074617465332D2D2D2D2D002D2D2D2D2D6F
:1000EE005374617465342D2D2D2D2D002D2D2D2D38
:1000FE002D5374617465352D2D2D2D2D002A2A2A30
:10010E002A2A41424F5254212A2A2A2A2A00544985
:10011E004D453A58585854454D503A585858005233
:10012E0065666C6F7720436F6D706C65746521002A
:10013E0052535420322042616B6520416761696ED3
:10014E00005265666C6F772053746F707065642112
:0E015E00200054494D453A0054454D503A009A
:10016C00C00078BE00000000D8FAD00022C000C049
:10017C0001793278DFD8FED9FADAF6D001D0002234
:10018C00D29112016CC29112016C22A2E79281A24F
:10019C00E69283A2E59285A2E4928712018CA2E3F7
:1001AC009281A2E29283A2E19285A2E0928712014F
:1001BC008C22D297020197C297020197C291C0027A
:1001CC007A28120179D00274331201C374331201EC
:1001DC00C374321201C374281201C3740C1201C30C
:1001EC0074011201C3C0027A02120179D00222E416
:1001FC009360061201BEA380F622444044800201A3
:10020C00C3C0E0E8C4540F44301201BEE8540F449C
:07021C00301201BED0E02208
:10022300C0E0C0D0C000C001C002C05EC05DC05C01
:10023300C05BE4F563F564F565F566F5677A20E57B
:100243005EA2E77904785BE633F608D9FA79057894
:1002530063E636D4F608D9F9DAE5D05BD05CD05D35
:10026300D05ED002D001D000D0D0D0E022C0E0C018
:10027300D0C000C001C002C067C066C065C064C012
:10028300637A207905C37867E613C0D030E7022488
:10029300D030E30224FDF618D0D0D9EC7904785E8F
:1002A300E613F618D9FADADBD206E5637002C20662
:1002B300D063D064D065D066D067D002D001D000BF
:1002C300D0D0D0E022C0E0C0D0E55B255FF55BE590
:1002D3005C3560F55CE55D3561F55DE55E3562F5E0
:1002E3005E9206D0D0D0E022C0E0C0D0C3E55B95DB
:1002F3005FF55BE55C9560F55CE55D9561F55DE556
:100303005E9562F55E9206D0D0D0E022C0E0C0D008
:10031300C3E55B955FE55C9560E55D9561E55E959D
:10032300629206D0D0D0E022C0E0C0D0C3E55F9592
:100333005BE560955CE561955DE562955E9206D04F
:10034300D0D0E022C0E0C0D0C206C3E55F955B70A9
:1003530014E560955C700EE561955D7008E5629546
:100363005E7002D206D0D0D0E022120347200603EB
:1003730002032B2212034720060302030F22C0E0CD
:10038300C0F0C0D0C000C001C002C003C004C0059B
:10039300E55B855FF0A4F8A9F0E55C855FF0A4292F
:1003A300F9E435F0FAE55B8560F0A429F9E5F03A64
:1003B300FAE433FBE55D855FF0A42AFAE5F03BFB45
:1003C300E55C8560F0A42AFAE5F03BFBE55B85611B
:1003D300F0A42AFAE5F03BFBE55E855FF0A42BFB76
:1003E300ACF07D00E55D8560F0A42BFBE5F03CFC03
:1003F300E43DFDE55C8561F0A42BFBE5F03CFCE40A
:100403003DFDE55B8562F0A42BFBE5F03CFCE43DA0
:10041300FDEC4DFCE55E8560F0A445F04CFCE55D2C
:100423008561F0A445F04CFCE55C8562F0A445F0E1
:100433004CFCE55E8561F0A445F04CFCE55D85620E
:10044300F0A445F04CFCE55E8562F0A445F04CFC5D
:100453008B5E8A5D895C885BD206BC0002C206D0D3
:1004630005D004D003D002D001D000D0D0D0F0D03A
:10047300E022C0E0C0D0C000C001C002C003C0047D
:10048300E55F4560456145627005D2060204E0C23E
:10049300067C20E4F8F9FAFBC3E55B33F55BE55C26
:1004A30033F55CE55D33F55DE55E33F55EE833F822
:1004B300E933F9EA33FAEB33FBC3E8955FE9956077
:1004C300EA9561EB95624013E8955FF8E99560F969
:1004D300EA9561FAEB9562FB435B01DCBBD004D088
:1004E30003D002D001D000D0D0D0E022855B5F855D
:1004F3005C60855D61855E6222E55BC55FF55BE5FA
:100503005CC560F55CE55DC561F55DE55EC562F5FD
:100513005E22C28EE589540F4420F589758DFD75E1
:100523008BFDE5874480F587D28E759852228535F9
:100533005B85365C755D00755E0012022374541290
:100543000571743D120571E564540F443012057151
:10055300E563C4540F4430120571E563540F44300E
:10056300120571740D120571740A12057122309906
:10057300FDC299F59922E58954F04401F589758CFA
:10058300FD758A5AD2A9D28C22758CFD758A5AB20E
:10059300953275C80075CDF575CC2775CBF575CA41
:1005A30027E4F568F569D2ADD2CA22C2CFC0E0C054
:1005B300D00568E56870020569E568B4E86DE5692A
:1005C300B4036875A100755E00755D0085A35C8545
:1005D300A25B755F88756013756100756200120315
:1005E30081755F0075601075610075620012047596
:1005F300755FE875600375610075620012038175AC
:100603005F0C756030756100756200120475755F6B
:10061300167560007561007562001202C8855B354E
:10062300855C361205311208988003020671D202E6
:10063300053AB2E8E4F568F569E530B40105120955
:100643000D8016B40305120929800EB402051208A1
:10065300E18006B404031208E1E56A20E80B2401F3
:10066300E56A20E804240180022499D4F56AD0D0F5
:10067300D0E032759AAB759BF6759C01759D00753C
:10068300A10075A18022781E794A7AFADAFED9FA96
:10069300D8F622C0F9A4B0999282F880908883C6D4
:1006A300A1868E900696E56645676004D2EF8002C8
:1006B300C2EF30FB2FE563540F93F591E563C45408
:1006C3000F93F592E564540F93F593E564C4540FC7
:1006D30093F594E565540F93F58EE565C4540F9334
:1006E300F58F8024E566540F93F591E566C4540FA6
:1006F30093F592E567540F93F593E567C4540F930D
:10070300F594758EFF758FFF227804B4031B22E5E1
:1007130031B40006E56BB4031022B40206E56BB4F2
:10072300030722E56BB4020122C3E56333F563E5F6
:100733006433F564E56533F565E56633F566E567CA
:1007430033F567D8E4EF4563F563056BD32278048B
:10075300C3E56713F567E56613F566E56513F565A8
:10076300E56413F564E56313F563D8E4E56B6003AF
:10077300156BD322780F794A7AFADAFED9FAD8F6CA
:1007830022439B54439C01539CAB539DFE2220B7B1
:100793001712077720B71130B7FD120751120270F5
:1007A300855B48855C49C322C292C294C296C2A0AB
:1007B300A2A282A482A682B05002C322120777A209
:1007C300A282A482A682B05002C322D292D294D231
:1007D30096D2A0C29220A2077F0130A2FDD322208D
:1007E300A4077F0230A4FDD32220A6077F0330A6EF
:1007F300FDD32220B0077F0A30B0FDD322D292C2AC
:100803009420A2077F0430A2FDD32220A4077F05F2
:1008130030A4FDD32220A6077F0630A6FDD32220D5
:10082300B0077F0B30B0FDD322D294C29620A2072B
:100833007F0730A2FDD32220A4077F0830A4FDD375
:100843002220A6077F0930A6FDD32220B0077F0C04
:1008530030B0FDD322D296C2A020A2077F0E30A2D1
:10086300FDD32220A4077F0030A4FDD32220A607B6
:100873007F0F30A6FDD32220B0077F0D30B0FDD30C
:1008830022D2A0C322C0F9A4B0999282F8809088A2
:1008930083C6A1868EC0E0C0D085355B85365C12E9
:1008A3000223900888E564540F93F593E563C454D9
:1008B3000F93F592E563540F93F591D0D0D0E022D6
:1008C30020B40B12068920B405D20330B4FD2220D4
:1008D300B30B12068920B305D20430B3FD22E544DD
:1008E300C3940250027400F555E544240250027487
:1008F300FFF557E535C39555400AE535C395576070
:1009030002500422D28022C28022E544C3941450B0
:10091300027400F559E535C39559400402092622AE
:10092300D28022C28022E544C3940450027400F5AD
:1009330059E535C39559400402094222D28022C2A7
:100943008022D28C7B07120689DBFBC28C22C0E09B
:10095300740114120206D0E0C083C082C0E090018B
:10096300601201FBD0E0D082D083853A5B853B5C8B
:10097300755D00755E00120223C0E0740614120256
:1009830006D0E0C000A86412020DD000C000A86326
:1009930012020DD000C0E0740A14120206D0E0C0A7
:1009A30083C082C0E09001661201FBD0E0D082D008
:1009B3008385355B85365C755D00755E00120223A9
:1009C300C0E0740D14120206D0E0C000A864120245
:1009D3000DD000C000A86312020DD0002275817FE4
:1009E300120676120579120595D2AF1201C81205C7
:1009F30015C202C200C205C280C28CE47530007504
:100A03003100753A00753500753C00753E3C754004
:100A1300967542DC754400756300755B00755C0078
:100A2300755D00755E00754896F549754A3CF54B52
:100A3300754CDCF54D754E1EF54FC0E07401141274
:100A43000208D0E0C083C082C0E090003F1201FBE7
:100A5300D0E0D082D083C0E0740114120206D0E04B
:100A6300C083C082C0E09000501201FBD0E0D0826E
:100A7300D083C205756B0030F93EE531B4003C12FA
:100A830008C320033985485B85495C755D00755E45
:100A930000120223C0E0740C14120206D0E0C0005E
:100AA300A86412020DD000C000A86312020DD0008A
:100AB3001208D220045B80090209E0020B48020BF2
:100AC3003812079150B120050CD2057400F563F577
:100AD30064F565F56612070C509D120270855B483C
:100AE300855C4985485B85495C755D00755E0012D0
:100AF3000223C0E0740C14120206D0E0C000A86404
:100B030012020DD000C000A86312020DD000020A29
:100B13007AC204E54820E80B20E90424018011246B
:100B23000A800D20E905C394018005C3940A80005F
:100B3300F548020A7A1209450531C203C205740059
:100B4300F56B020A7AC0E0740114120206D0E0C009
:100B530083C082C0E09000611201FBD0E0D082D05C
:100B63008330F935E531B401621208C3200353859C
:100B73004A5B755C00755D00755E00120223C0E080
:100B8300740C14120206D0E0C000A86312020DD048
:100B9300001208D220040880C80209E0020BCEC26A
:100BA30004E54A20E80B20E90424018011240A808B
:100BB3000D20E905C394018005C3940A8000F54A1A
:100BC300809F1209450531C2038096C0E074011469
:100BD300120206D0E0C083C082C0E090007212010E
:100BE300FBD0E0D082D08330F93EE531B4026B1202
:100BF30008C320035C854C5B854D5C755D00755EA9
:100C030000120223C0E0740C14120206D0E0C000EC
:100C1300A86412020DD000C000A86312020DD00018
:100C23001208D220040880BF0209E0020C5DC2044E
:100C3300E54C20E80B20E90424018011240A800DEF
:100C430020E905C394018005C3940A8000F54C8014
:100C5300961209450531C203808DC0E07401141258
:100C63000206D0E0C083C082C0E09000831201FB83
:100C7300D0E0D082D08330F935E531B403331208A4
:100C8300C3200353854E5B755C00755D00755E0084
:100C9300120223C0E0740C14120206D0E0C000A8B4
:100CA3006312020DD0001208D220040880C8020982
:100CB300E0020CE3C204E54E20E80B20E904240122
:100CC3008011240A800D20E905C394018005C39493
:100CD3000A8000F54E809F1209450531C2038096B4
:100CE300C0E0740114120208D0E0C083C082C0E0E7
:100CF3009000941201FBD0E0D082D083C0E0740155
:100D030014120206D0E0C083C082C0E090002E120D
:100D130001FBD0E0D082D08320B5FD12068920B537
:100D2300F7C0E0740114120208D0E0C083C082C08F
:100D3300E09000A51201FBD0E0D082D083D20080E6
:100D43000030B70CC280E530B4001520000580F1F7
:100D5300020F4A1209450530753C64753A0080E17B
:100D630030F93730B737E530B40148C0E0740114C7
:100D7300120208D0E0C083C082C0E09000B6120126
:100D8300FBD0E0D082D083120951120E0185484472
:100D9300E535C395444009020DA9020F41020F4AEC
:100DA3004002800280BA1209450530753C14753A39
:100DB3000080AD30F93730B737E530B4022CC0E0EE
:100DC300740114120208D0E0C083C082C0E0900016
:100DD300C71201FBD0E0D082D083120951854A4665
:100DE300E53AC395464020020E10020E1B020F4146
:100DF300020F4AE53AB43C004003020F8922E5356D
:100E0300B432012240ED224002800280A61209453D
:100E13000530753C64020DB630F93430B734E53033
:100E2300B40345C0E0740114120208D0E0C083C0CB
:100E330082C0E09000D81201FBD0E0D082D08312B0
:100E43000951854C44E535C395444009020E5E02C1
:100E53000F41020F4A4002800280BD12094505304E
:100E6300753C14753A0080B030F93730B731E5304E
:100E7300B40442C0E0740114120208D0E0C083C07D
:100E830082C0E09000E91201FBD0E0D082D083124F
:100E93000951854E46E53AC395464009020EAE0216
:100EA3000F4A020F414002800280BD1209450530FE
:100EB300753C0080B330F93330B733C280E530B4CA
:100EC300052F853E44E535C0E0740114120208D0B5
:100ED300E0C083C082C0E09000FA1201FBD0E0D0F2
:100EE30082D083120951B43C4680CA020F41020FDB
:100EF3004A120945C0E0740114120208D0E0C0830D
:100F0300C082C0E090012D1201FBD0E0D082D083DB
:100F1300C0E0740114120206D0E0C083C082C0E0B6
:100F230090013E1201FBD0E0D082D083020FDF405C
:100F3300028008753000C200020EB8020EB8753088
:100F430000753C000209E0C0E0740114120208D0ED
:100F5300E0C083C082C0E090014F1201FBD0E0D01B
:100F630082D083C0E0740114120206D0E0C083C0B3
:100F730082C0E090013E1201FBD0E0D082D083C258
:100F83008030F95580FBC0E0740114120208D0E0F0
:100F9300C083C082C0E090010B1201FBD0E0D0827D
:100FA300D083C0E0740114120206D0E0C083C08273
:100FB300C0E090013E1201FBD0E0D082D0837C0AD6
:100FC3001209451206891206891206891206891228
:100FD3000689DCEC30F90280FB0209E07C0512098A
:100FE3004512068912068912068912068912068994
:0A0FF300DCEC30F90280FB020F4134
:00000001FF
