:0300000002064AAB
:0100030032CA
:03000B0002049953
:0100130032BA
:01001B0032B2
:0100230032AA
:03002B000204BB11
:10002E00536F616B2054656D703A20787878204359
:10003E0000536F616B2054696D653A207878782093
:10004E0043005265666C6F772054656D703A207868
:10005E007873005265666C6F772054696D653A202F
:10006E0078787300526561647920746F20537461DF
:05007E00727421200056
:10008300C00078BE00000000D8FAD00022C000C033
:1000930001793278DFD8FED9FADAF6D001D000221E
:1000A300D291120083C29112008322A2E79281A20D
:1000B300E69283A2E59285A2E492871200A3A2E3CB
:1000C3009281A2E29283A2E19285A2E0928712003A
:1000D300A322D2970200AEC2970200AEC291C00221
:1000E3007A28120090D00274331200DA74331200AB
:1000F300DA74321200DA74281200DA740C1200DA9D
:1001030074011200DAC0027A02120090D00222E4D3
:100113009360061200D5A380F62244404480020077
:10012300DAC0E0E8C4540F44301200D5E8540F4459
:07013300301200D5D0E022DC
:10013A00C0E0C0D0C000C001C002C059C058C057FA
:10014A00C056E4F55EF55FF560F561F5627A20E583
:10015A0059A2E779047856E633F608D9FA79057888
:10016A005EE636D4F608D9F9DAE5D056D057D05833
:10017A00D059D002D001D000D0D0D0E022C0E0C007
:10018A00D0C000C001C002C062C061C060C05FC010
:10019A005E7A207905C37862E613C0D030E702247C
:1001AA00D030E30224FDF618D0D0D9EC790478597E
:1001BA00E613F618D9FADADBD204E55E7002C20455
:1001CA00D05ED05FD060D061D062D002D001D000C2
:1001DA00D0D0D0E022C0E0C0D0E556255AF556E589
:1001EA0057355BF557E558355CF558E559355DF5F2
:1001FA00599204D0D0D0E022C0E0C0D0C3E55695D1
:10020A005AF556E557955BF557E558955CF558E567
:10021A0059955DF5599204D0D0D0E022C0E0C0D003
:10022A00C3E556955AE557955BE558955CE55995AA
:10023A005D9204D0D0D0E022C0E0C0D0C3E55A9588
:10024A0056E55B9557E55C9558E55D95599204D05E
:10025A00D0D0E022C0E0C0D0C204C3E55A9556709F
:10026A0014E55B9557700EE55C95587008E55D9549
:10027A00597002D204D0D0D0E02212025E200403C8
:10028A000202422212025E20040302022622C0E077
:10029A00C0F0C0D0C000C001C002C003C004C00585
:1002AA00E556855AF0A4F8A9F0E557855AF0A4292D
:1002BA00F9E435F0FAE556855BF0A429F9E5F03A58
:1002CA00FAE433FBE558855AF0A42AFAE5F03BFB39
:1002DA00E557855BF0A42AFAE5F03BFBE556855C19
:1002EA00F0A42AFAE5F03BFBE559855AF0A42BFB6A
:1002FA00ACF07D00E558855BF0A42BFBE5F03CFCF7
:10030A00E43DFDE557855CF0A42BFBE5F03CFCE4FD
:10031A003DFDE556855DF0A42BFBE5F03CFCE43D94
:10032A00FDEC4DFCE559855BF0A445F04CFCE55825
:10033A00855CF0A445F04CFCE557855DF0A445F0DA
:10034A004CFCE559855CF0A445F04CFCE558855D0C
:10035A00F0A445F04CFCE559855DF0A445F04CFC51
:10036A008B598A5889578856D204BC0002C204D0D5
:10037A0005D004D003D002D001D000D0D0D0F0D024
:10038A00E022C0E0C0D0C000C001C002C003C00467
:10039A00E55A455B455C455D7005D2040203F7C228
:1003AA00047C20E4F8F9FAFBC3E55633F556E55721
:1003BA0033F557E55833F558E55933F559E833F825
:1003CA00E933F9EA33FAEB33FBC3E8955AE9955B6B
:1003DA00EA955CEB955D4013E8955AF8E9955BF967
:1003EA00EA955CFAEB955DFB435601DCBBD004D081
:1003FA0003D002D001D000D0D0D0E02285565A8551
:10040A00575B85585C85595D22E556C55AF556E510
:10041A0057C55BF557E558C55CF558E559C55DF50F
:10042A005922C28EE589540F4420F589758DFD75D0
:10043A008BFDE5874480F587D28E759852228535E3
:10044A005685365775580075590012013AE55F54BA
:10045A000F243012047EE55EC4540F243012047E49
:10046A00E55E540F243012047E740D12047E740A61
:10047A0012047E223099FDC299F59922E58954F039
:10048A004401F589758CFD758A5AD2A9D28C2275D8
:10049A008CFD758A5AB2953275C80075CDF575CC42
:1004AA002775CBF575CA27E4F563F564D2ADD2CAD0
:1004BA0022C2CFC0E0C0D00563E56370020564E5DF
:1004CA0063B4E871E564B4036CE5A14480B400FD4B
:1004DA0075590075580085A35785A256755A8875AF
:1004EA005B13755C00755D00120298755A00755BA6
:1004FA0010755C00755D0012038C755AE8755B0314
:10050A00755C00755D00120298755A0C755B307542
:10051A005C00755D0012038C755A16755B00755C7C
:10052A0000755D001201DF8556358557361205AF15
:10053A00120448800302057DD2020537B2E8B28C64
:10054A00E4F563F564E530B401051206098016B4D2
:10055A000305120609800EB402051205DD8006B4F1
:10056A0004031205DDE56520E804240180022499CC
:10057A00D4F565D0D0D0E032759AAB759BF6759CF0
:10058A0001759D0175A10022781E794A7AFADAFE70
:10059A00D9FAD8F622C0F9A4B0999282F880908844
:1005AA0083C6A1868EC0E0C0D090059FE536540F61
:1005BA0093F593E535C4540F93F592E535540F93AB
:1005CA00F591D0D0D0E02220F90812059220F90244
:1005DA00D20322E541C3940350027400F550E54169
:1005EA002403500274FFF552E535C39550400AE5DD
:1005FA0035C395526002500422D28022C28022E57D
:10060A0041C3940A50027400F554E535C395544029
:10061A0026E541C3940350027400F550E5412403D2
:10062A00500274FFF552E535C39550400DE535C3C8
:10063A0095526002500722D28022D28022C28022A2
:10064A0075817F1205821204861204A2D2AF1200AB
:10065A00DF12042CC202C20075439675453C7547E9
:10066A00DC75491E75300075310075370075350027
:10067A00753900753B3C753D96753FDC75410075D3
:10068A005E00E531C0E074011412011FD0E0C0839E
:10069A00C082C0E090002E120112D0E0D082D08336
:1006AA00E531B400301205D120031EC0E0740C14E9
:1006BA0012011FD0E0C000A85F120124D000C000C0
:1006CA00A85E120124D00080D7855E43855F440569
:1006DA0031C20380CBC0E074011412011FD0E0C004
:1006EA0083C082C0E090003F120112D0E0D082D0D5
:1006FA0083C203E531B401301205D120031EC0E0E4
:10070A00740C1412011FD0E0C000A85F120124D09B
:10071A0000C000A85E120124D00080D7855E4585FE
:10072A005F460531C20380CBC0E074011412011F79
:10073A00D0E0C083C082C0E0900050120112D0E025
:10074A00D082D083E531B402301205D120031EC015
:10075A00E0740E1412011FD0E0C000A85F12012439
:10076A00D000C000A85E120124D00080D7855E4761
:10077A00855F480531C20380CBC0E07401141201C1
:10078A001FD0E0C083C082C0E0900061120112D085
:10079A00E0D082D083E531B403391205D120032792
:1007AA00C0E0740E1412011FD0E0C000A85F12014D
:1007BA0024D000C000A85E120124D000C000A849BD
:1007CA00120124D00080CE855E49855F4A0531C278
:1007DA000380C2C0E074011412011FD0E0C083C0BC
:1007EA0082C0E0900072120112D0E0D082D0832041
:1007FA00FBFD12059220FBF7D200800020FA0CC202
:10080A0080E530B4001220000580F102091305309A
:10081A0075396475370080E420F81420FA14E5303D
:10082A00B4011F853D41AA35E541B4020880E902B9
:10083A00090A0209134004800080DD053075391465
:10084A0080D620F81120FA11E530B4023F783CE551
:10085A0037B40028800902090A0209130209167925
:10086A0032E535B4010A0530753964753700801CE4
:10087A0040EA0530753964753700801040028002FD
:10088A0080C0053075396475370080B620F81420A9
:10089A00FA14E530B4031F853F41AA35E541B40295
:1008AA000880E902090A0209134004800080DD0574
:1008BA003075391480D620F84720FA4DE530B40453
:1008CA0016782DE537B4000280EC4002800280E6FB
:1008DA00053075390080DF20F82620FA2CC280E521
:1008EA0030B4050C853B41AA35E541B4020580E7E1
:1008FA0002080640098000753000C20080D980D7FE
:10090A0075300075390002064A02064A20F802804C
:04091A00FB02064A8C
:00000001FF
