:03000000020AFFF2
:0100030032CA
:03000B000205D01B
:0100130032BA
:01001B0032B2
:0100230032AA
:03002B000205F6D5
:10002E0020202020202020202020202020202020C2
:10003E0000507265736574733A203120322033207C
:10004E00340053454C45435420746F20736B6970D4
:10005E002E200073544D503A7878782073544D45C5
:10006E003A78780072544D503A7878782072544D20
:10007E00453A78780053656C6563742050617261FF
:10008E006D6574657200536F616B2054656D703AC7
:10009E0020787878204300536F616B2054696D652A
:1000AE003A2078782020730052666C772054656D64
:1000BE00703A2078787820430052666C7720546925
:1000CE006D653A207878202073005265616479203E
:1000DE00746F2053746172742120002D2D2D2D2DDF
:1000EE005374617465302D2D2D2D2D003D3D5261C3
:1000FE006D7020546F20536F616B3D3D003D3D3D53
:10010E003D3D3D536F616B3D3D3D3D3D3D003D3DB4
:10011E0052616D7020546F205065616B3D3D003D06
:10012E003D3D3D3D5265666C6F773D3D3D3D3D002D
:10013E003D3D3D3D436F6F6C696E67213D3D3D3DDD
:10014E00002A2A2A2A2A41424F5254212A2A2A2A8E
:10015E002A0054494D453A58585854454D503A582E
:10016E005858005265666C6F7720436F6D706C65E2
:10017E007465210052535420322042616B65204138
:10018E006761696E005265666C6F772053746F708D
:10019E0070656421200054494D453A0054454D5038
:0201AE003A0015
:1001B000C00078BE00000000D8FAD00022C000C005
:1001C00001793278DFD8FED9FADAF6D001D00022F0
:1001D000D2911201B0C2911201B022A2E79281A283
:1001E000E69283A2E59285A2E492871201D0A2E36F
:1001F0009281A2E29283A2E19285A2E0928712010B
:10020000D022D2970201DBC2970201DBC291C00269
:100210007A281201BDD0027433120207743312021D
:100220000774321202077428120207740C120207B4
:100230007401120207C0027A021201BDD00222E448
:10024000936006120202A380F62244404480020218
:1002500007C0E0E8C4540F4430120202E8540F44CF
:0702600030120202D0E0227F
:10026700C0E0C0D0C000C001C002C06AC069C06899
:10027700C067E4F56FF570F571F572F5737A20E5EF
:100287006AA2E779047867E633F608D9FA79057838
:100297006FE636D4F608D9F9DAE5D067D068D069C1
:1002A700D06AD002D001D000D0D0D0E022C0E0C0C8
:1002B700D0C000C001C002C073C072C071C070C09E
:1002C7006F7A207905C37873E613C0D030E702242C
:1002D700D030E30224FDF618D0D0D9EC7904786A3F
:1002E700E613F618D9FADADBD208E56F7002C2080E
:1002F700D06FD070D071D072D073D002D001D0003F
:10030700D0D0D0E022C0E0C0D0E567256BF567E527
:1003170068356CF568E569356DF569E56A356EF53B
:100327006A9208D0D0D0E022C0E0C0D0C3E567957C
:100337006BF567E568956CF568E569956DF569E5B1
:100347006A956EF56A9208D0D0D0E022C0E0C0D09E
:10035700C3E567956BE568956CE569956DE56A9505
:100367006E9208D0D0D0E022C0E0C0D0C3E56B9534
:1003770067E56C9568E56D9569E56E956A9208D0B5
:10038700D0D0E022C0E0C0D0C208C3E56B9567704B
:1003970014E56C9568700EE56D95697008E56E95C6
:1003A7006A7002D208D0D0D0E02212038B20080353
:1003B70002036F2212038B20080302035322C0E0BB
:1003C700C0F0C0D0C000C001C002C003C004C00557
:1003D700E567856BF0A4F8A9F0E568856BF0A429BB
:1003E700F9E435F0FAE567856CF0A429F9E5F03A08
:1003F700FAE433FBE569856BF0A42AFAE5F03BFBE9
:10040700E568856CF0A42AFAE5F03BFBE567856DA6
:10041700F0A42AFAE5F03BFBE56A856BF0A42BFB19
:10042700ACF07D00E569856CF0A42BFBE5F03CFCA6
:10043700E43DFDE568856DF0A42BFBE5F03CFCE4AD
:100447003DFDE567856EF0A42BFBE5F03CFCE43D44
:10045700FDEC4DFCE56A856CF0A445F04CFCE569C4
:10046700856DF0A445F04CFCE568856EF0A445F079
:100477004CFCE56A856DF0A445F04CFCE569856E9A
:10048700F0A445F04CFCE56A856EF0A445F04CFC01
:100497008B6A8A6989688867D208BC0002C208D05B
:1004A70005D004D003D002D001D000D0D0D0F0D0F6
:1004B700E022C0E0C0D0C000C001C002C003C00439
:1004C700E56B456C456D456E7005D208020524C283
:1004D700087C20E4F8F9FAFBC3E56733F567E568BC
:1004E70033F568E56933F569E56A33F56AE833F8A2
:1004F700E933F9EA33FAEB33FBC3E8956BE9956C1B
:10050700EA956DEB956E4013E8956BF8E9956CF9F4
:10051700EA956DFAEB956EFB436701DCBBD004D01F
:1005270003D002D001D000D0D0D0E02285676B8500
:10053700686C85696D856A6E22E567C56BF567E549
:1005470068C56CF568E569C56DF569E56AC56EF559
:100557006A22C28EE589540F4420F589758DFD7591
:100567008BFDE5874480F587D28E75985222853DAD
:1005770067853E68756900756A00120267745412D0
:1005870005B5743D1205B5E570540F44301205B535
:10059700E56FC4540F44301205B5E56F540F44306E
:1005A7001205B5740D1205B5740A1205B5223099F6
:1005B700FDC299F59922E58954F04401F589758CB6
:1005C700FD758A5AD2A9D28C22758CFD758A5AB2CA
:1005D700953275C80075CDF575CC2775CBF575CAFD
:1005E70027E4F574F575F576F577D2ADD2CA22C250
:1005F700CFC0E0C0D00574E574700205750576E5D7
:1006070076B41405E4F576D2030577E577B43205B9
:10061700E4F577D204E574B4E80CE575B40307E4B0
:10062700F574F575D202D0D0D0E0327402F5A1127C
:100637000767120851E5A3540FF53585A2367401F3
:10064700F5A1120767120851E5A3540FF53785A2E4
:1006570038756A00756900853768853867756B0076
:10066700756C10756D00756E001203C5756E00759B
:100677006D0085356C85366B1204B9756BAA756C80
:100687000A756D00756E0012032F756B0A756C0085
:10069700756D00756E001204B985683985673A74FF
:1006A70000F5A1120767120851E5A3540F756A00F8
:1006B700756900F56885A267756B4D756C01756D79
:1006C70000756E001203C5756E00756D0085356C7B
:1006D70085366B1204B985683B85673C756E007576
:1006E7006D0085396C853A6B12030C85673D85680B
:1006F7003E220542B2E8E530B40105120A2C801605
:10070700B40305120A2C800EB40205120A008006F3
:10071700B40403120A00E57820E8042401800224C7
:1007270099D4F5782220030720040C20021422C252
:100737000312063202072CC20412057512099A0227
:10074700072CC2021206F902072C759AAB759BF7A4
:10075700759C01759D0212085E75A10075A1802226
:10076700781E794A7AFADAFED9FAD8F622C0F9A4BD
:10077700B0999282F880908883C6A1868E9007747C
:10078700E57245736004D2EF8002C2EF30FB2FE5BC
:100797006F540F93F591E56FC4540F93F592E5707D
:1007A700540F93F593E570C4540F93F594E5715482
:1007B7000F93F58EE571C4540F93F58F8024E5727E
:1007C700540F93F591E572C4540F93F592E5735462
:1007D7000F93F593E573C4540F93F594758EFF75D6
:1007E7008FFF227804E531B40006E57AB4031022BE
:1007F700B40206E57AB4030722E57AB4020122C3FC
:10080700E56F33F56FE57033F570E57133F571E535
:100817007233F572E57333F573D8E4EF456FF56F0F
:10082700057AD3227804C3E57313F573E57213F5DC
:1008370072E57113F571E57013F570E56F13F56FD8
:10084700D8E4E57A6003157AD322780F794A7AFAE1
:10085700DAFED9FAD8F622439B54439C01539CAB4A
:10086700539DFE2220B73F12085120B73930B7FDFC
:1008770012082B1202B4E531B40008856750856869
:10088700518021B401088567528568538016B402E8
:1008970008856754856855800BB4030885675685B6
:1008A70068578000C322C292C294C296C2A0A2A275
:1008B70082A482A682B05002C322120851A2A28249
:1008C700A482A682B05002C322D292D294D296D2E8
:1008D700A0C29220A2077F0130A2FDD32220A40745
:1008E7007F0230A4FDD32220A6077F0330A6FDD3C5
:1008F7002220B0077F0A30B0FDD322D292C29420C3
:10090700A2077F0430A2FDD32220A4077F0530A4CD
:10091700FDD32220A6077F0630A6FDD32220B007ED
:100927007F0B30B0FDD322D294C29620A2077F0757
:1009370030A2FDD32220A4077F0830A4FDD32220B4
:10094700A6077F0930A6FDD32220B0077F0C30B061
:10095700FDD322D296C2A020A2077F0E30A2FDD3DC
:100967002220A4077F0030A4FDD32220A6077F0FF3
:1009770030A6FDD32220B0077F0D30B0FDD322D2A1
:10098700A0C322C0F9A4B0999282F880908883C648
:10099700A1868EC0E0C0D0853D67853E6875690039
:1009A700756A0012026790098AE571C4540F93F5BE
:1009B7008FE571540F93F58EE570C4540F93F5943A
:1009C700E570540F93F593E56FC4540F93F592E5D3
:1009D7006F540F93F591D0D0D0E02220B40B1207BB
:1009E7006720B405D20530B4FD2220B30B12076788
:1009F70020B305D20630B3FD22E54CC39402500262
:100A07007400F55DE54C2402500274FFF55FE53D87
:100A1700C3955D400AE53DC3955F6002500422D24D
:100A27008022C28022E56404B406027400F564E5FE
:100A37004CC3956550027400F561E53DC39561406F
:100A470010E53DC3954C500CE564C39563400880A1
:100A570009D28022C28022D28022C28022D28C7BFD
:100A670007120767DBFBC28C22C0E0740114120275
:100A77004AD0E0C083C082C0E09001A412023FD0F8
:100A8700E0D082D083854267854368756900756ABF
:100A970000120267C0E074061412024AD0E0C000D8
:100AA700A870120251D000C000A86F120251D000E6
:100AB700C0E0740A1412024AD0E0C083C082C0E0CA
:100AC7009001AA12023FD0E0D082D083853D67858E
:100AD7003E68756900756A00120267C0E0740D14FC
:100AE70012024AD0E0C000A870120251D000C00024
:100AF700A86F120251D0002275817F12075112058B
:100B0700BD1205D9D2AF12020C120559C202C20397
:100B1700C204C200C207C280C28CE4C290C2B175CF
:100B27003000753100754200753D0075440075460B
:100B37003C754896754ADC754C00754D00754E003E
:100B4700754F00756F0075670075680075690075EA
:100B57006A00755000F551755200F553755400F54C
:100B670055755600F55775790020036220046620F5
:100B7700026DE579B40003020BEDB40103020C2DFD
:100B8700B40203020C6CB40303020CA2B404030204
:100B97000CD8B40503020D0EB4060302121AB407EB
:100BA70003021261B40803021294B409030212CAC1
:100BB700B40A0302132BB40B030213A6B40C0302EB
:100BC7001404B40D0302145C757900020B70C203A0
:100BD7001206328094C20412057512099A808AC2DD
:100BE700021206F98083C0E074011412024CD0E0AF
:100BF700C083C082C0E090003F12023FD0E0D082A5
:100C0700D083C0E074011412024AD0E0C083C082CE
:100C1700C0E090005012023FD0E0D082D083C205DE
:100C2700757901020B7012072C1209E230EF0302EB
:100C37000C5730EE03020C8D30ED03020CC330EC81
:100C470003020CF9200506757901020B70020E24C8
:100C57007550AA75524B7554E675562D120A647570
:100C67007902020B70120D2F1209E220051230EFE4
:100C770006757902020B70120A64757900020B700F
:100C8700757906020B707550A075525A7554E67542
:100C9700563C120A64757903020B70120D2F120964
:100CA700E220051230EE06757903020B70120A6412
:100CB700757900020B70757906020B707550967581
:100CC70052787554E175563C120A64757904020B23
:100CD70070120D2F1209E220051230ED0675790406
:100CE700020B70120A64757900020B70757906029F
:100CF7000B707550B475523C7554EB75561E120A3D
:100D070064757905020B70120D2F1209E220051286
:100D170030EC06757905020B70120A6475790002CA
:100D27000B70757906020B70C0E0C0D0C0E074018B
:100D37001412024CD0E0C083C082C0E09000611260
:100D4700023FD0E0D082D083C0E074011412024A7F
:100D5700D0E0C083C082C0E090007212023FD0E0B2
:100D6700D082D083855067855168120267C0E074CE
:100D7700051412024CD0E0C000A870120251D00036
:100D8700C000A86F120251D000C0E074051412020F
:100D97004CD0E0C083C082C0E090003A12023FD03E
:100DA700E0D082D083855267120267C0E0740F14C7
:100DB70012024CD0E0C000A86F120251D000855437
:100DC70067855568120267C0E074051412024AD09D
:100DD700E0C000A870120251D000C000A86F120234
:100DE70051D000C0E074051412024AD0E0C083C09D
:100DF70082C0E090003A12023FD0E0D082D08385D3
:100E07005667120267C0E0740F1412024AD0E0C09E
:100E170000A86F120251D000D0D0D0E022C0E074F9
:100E2700011412024CD0E0C083C082C0E09000835E
:100E370012023FD0E0D082D083C0E07401141202C6
:100E47004AD0E0C083C082C0E090009412023FD035
:100E5700E0D082D083C205C207757A0012072C3012
:100E6700B23EAE31BE003F1209E220053C85506715
:100E7700855168756900756A00120267C0E0740CD5
:100E87001412024AD0E0C000A870120251D000C06C
:100E970000A86F120251D0001209F1200667800CDA
:100EA700757900020B70020F3F020F3012086B506A
:100EB700ABEFB40A03020E6350A220070CD20774EB
:100EC70000F56FF570F571F5721207EA508E120290
:100ED700B485675085685185506785516875690085
:100EE700756A00120267C0E0740C1412024AD0E05F
:100EF700C000A870120251D000C000A86F120251A2
:100F0700D000020E63C206E55020E80B20E9042456
:100F1700018011240A800D20E905C394018005C3CF
:100F2700940A8000F550020E63120A640531C20567
:100F3700C207757A00020E63C0E074011412024AF8
:100F4700D0E0C083C082C0E09000A512023FD0E08D
:100F5700D082D083C205C207757A0012072C30B23F
:100F670036AE31BE01371209E22005348552677566
:100F77006800756900756A00120267C0E0740C1496
:100F870012024AD0E0C000A86F120251D000120925
:100F9700F120065F020FAA757900020B7002102D6F
:100FA70002101E12086B50B3EFB40A03020F62500F
:100FB700AA20070CD2077400F56FF570F571F5726A
:100FC7001207EA50961202B485675275530085528C
:100FD70067756800756900756A00120267C0E0747A
:100FE7000C1412024AD0E0C000A86F120251D000C0
:100FF700020F62C206E55220E80B20E904240180B3
:1010070011240A800D20E905C394018005C3940AC1
:101017008000F552020F62120A640531C205C20749
:10102700757A00020F62C0E074011412024AD0E020
:10103700C083C082C0E09000B612023FD0E0D082E9
:10104700D083C205C207757A0012072C30B23FAEB3
:1010570031BE02401209E220053D85546785556877
:10106700756900756A00120267C0E0740C141202F9
:101077004AD0E0C000A870120251D000C000A86F8B
:10108700120251D0001209F12006680210A17579E9
:1010970000020B7002112D02111E12086B50AAEFED
:1010A700B40A0302105050A120070CD2077400F5B0
:1010B7006FF570F571F5721207EA508D1202B4855B
:1010C7006754856855855467855568756900756ADD
:1010D70000120267C0E0740C1412024AD0E0C0008C
:1010E700A870120251D000C000A86F120251D000A0
:1010F700021050C206E55420E80B20E904240180C1
:1011070011240A800D20E905C394018005C3940AC0
:101117008000F554021050120A640531C205C20757
:10112700757A00021050C0E074011412024AD0E030
:10113700C083C082C0E09000C712023FD0E0D082D7
:10114700D083C205C207757A0012072C30B235AEBC
:1011570031BE03361209E2200533855667756800EC
:10116700756900756A00120267C0E0740C141202F8
:101177004AD0E0C000A86F120251D0001209F12036
:10118700065E800C757900020B7002121A02120BB0
:1011970012086B50B4EFB40A0302115050AB20078A
:1011A7000CD2077400F56FF570F571F5721207EA46
:1011B70050971202B485675675570085566775684C
:1011C70000756900756A00120267C0E0740C14129A
:1011D700024AD0E0C000A86F120251D0000211509D
:1011E700C206E55620E80B20E90424018011240AF1
:1011F700800D20E905C394018005C3940A8000F59A
:1012070056021150120A640531C205C207757A00E9
:10121700021150C0E074011412024CD0E0C083C028
:1012270082C0E09000D812023FD0E0D082D083C0C5
:10123700E074011412024AD0E0C083C082C0E0907B
:10124700002E12023FD0E0D082D083C205C206C270
:1012570007757A00757907020B7020B52A120767A0
:1012670020B524C0E074011412024CD0E0C083C042
:1012770082C0E09000E912023FD0E0D082D083D252
:1012870000757908020B70757907020B7012072C2D
:1012970030B713C280E530754200B400262000093C
:1012A700757908020B70021501120A6475640075DE
:1012B70063037565140530754464754200757908D4
:1012C700020B7012072C30B23A30B73AE530B4014E
:1012D70053C0E074011412024CD0E0C083C082C036
:1012E700E09000FA12023FD0E0D082D083120A7059
:1012F70012137C85504C85514DE53DC3954C4009F3
:1013070002131A0214F502150140028006757909C5
:10131700020B70120A640530754414754200757922
:1013270009020B7012072C30B23A30B73AE530B4E5
:10133700022FC0E074011412024CD0E0C083C082B7
:10134700C0E090010B12023FD0E0D082D083120A96
:101357007085524E85534FE542C3954E4020021388
:101367008F0213A60214F5021501E542B43C0040B2
:101377000302154522E53DB432012240ED22400229
:10138700800675790A020B70120A6475640075632A
:101397000375650A053075446475790A020B701286
:1013A700072C30B23730B737E530B40350C0E0749C
:1013B700011412024CD0E0C083C082C0E090011C2F
:1013C70012023FD0E0D082D083120A7085544C8538
:1013D700554DE53DC3954C40090213F30214F50240
:1013E70015014002800675790B020B70120A64051D
:1013F7003075441475420075790B020B7030B23AA0
:1014070030B734E530B4044DC0E074011412024C17
:10141700D0E0C083C082C0E090012D12023FD0E02F
:10142700D082D083120A7085564E85574FE542C346
:10143700954E400902144E0215010214F540028030
:101447000675790C020B70120A6405307544007535
:10145700790C020B7012072C30B23A30B73AC280BF
:10146700E530B4053685464C85474DE53DC0E0740B
:10147700011412024CD0E0C083C082C0E090013E4C
:1014870012023FD0E0D082D083120A70B43C4A7572
:10149700790D020B700214F5021501120A64C0E0FF
:1014A70074011412024CD0E0C083C082C0E09001E6
:1014B7007112023FD0E0D082D083C0E074011412D1
:1014C700024AD0E0C083C082C0E090018212023F8E
:1014D700D0E0D082D08302159D4002800B7530008A
:1014E700C20075790D020B7075790D020B7075309E
:1014F70000754400757900020B70D290C0E074014A
:101507001412024CD0E0C083C082C0E09001931255
:10151700023FD0E0D082D083C0E074011412024AA7
:10152700D0E0C083C082C0E090018212023FD0E0C9
:10153700D082D083120A64C28030B25780FBD29027
:10154700C0E074011412024CD0E0C083C082C0E036
:1015570090014F12023FD0E0D082D083C0E07401E7
:101567001412024AD0E0C083C082C0E09001821208
:10157700023FD0E0D082D0837C0A120A6412076748
:10158700120767120767120767120767DCEC30B2AA
:101597000280FB020AFFD2B17C05120A64120767B8
:1015A700120767120767120767120767DCEC30B28A
:0615B7000280FB0214F5A6
:00000001FF
