:030000000206F203
:0100030032CA
:03000B0002052DBE
:0100130032BA
:01001B0032B2
:0100230032AA
:03002B0002054F7C
:10002E0020202020202020202020202020202020C2
:10003E000053656C65637420506172616D65746503
:10004E007200536F616B2054656D703A207878782A
:10005E00204300536F616B2054696D653A207878A8
:10006E002020730052666C772054656D703A2078AC
:10007E00787820430052666C772054696D653A207B
:10008E00787820207300526561647920746F205354
:10009E007461727421200053746174652030205095
:1000AE006C616365686F6C640053746174652031B4
:1000BE0020506C616365686F6C6400537461746585
:1000CE00203220506C616365686F6C6400537461FC
:1000DE007465203320506C616365686F6C640053E7
:1000EE0074617465203420506C616365686F6C6454
:1000FE00005374617465203520506C616365686FC0
:09010E006C640041424F525400A0
:10011700C00078BE00000000D8FAD00022C000C09E
:1001270001793278DFD8FED9FADAF6D001D0002289
:10013700D291120117C29112011722A2E79281A24E
:10014700E69283A2E59285A2E49287120137A2E3A1
:100157009281A2E29283A2E19285A2E092871201A4
:100167003722D297020142C297020142C291C002CE
:100177007A28120124D002743312016E74331201EB
:100187006E743212016E742812016E740C12016EB5
:10019700740112016EC0027A02120124D00222E415
:1001A700936006120169A380F6224440448002014D
:1001B7006EC0E0E8C4540F4430120169E8540F449C
:0701C70030120169D0E022B3
:1001CE00C0E0C0D0C000C001C002C059C058C05766
:1001DE00C056E4F55EF55FF560F561F5627A20E5EF
:1001EE0059A2E779047856E633F608D9FA790578F4
:1001FE005EE636D4F608D9F9DAE5D056D057D0589F
:10020E00D059D002D001D000D0D0D0E022C0E0C072
:10021E00D0C000C001C002C062C061C060C05FC07B
:10022E005E7A207905C37862E613C0D030E70224E7
:10023E00D030E30224FDF618D0D0D9EC79047859E9
:10024E00E613F618D9FADADBD204E55E7002C204C0
:10025E00D05ED05FD060D061D062D002D001D0002D
:10026E00D0D0D0E022C0E0C0D0E556255AF556E5F4
:10027E0057355BF557E558355CF558E559355DF55D
:10028E00599204D0D0D0E022C0E0C0D0C3E556953C
:10029E005AF556E557955BF557E558955CF558E5D3
:1002AE0059955DF5599204D0D0D0E022C0E0C0D06F
:1002BE00C3E556955AE557955BE558955CE5599516
:1002CE005D9204D0D0D0E022C0E0C0D0C3E55A95F4
:1002DE0056E55B9557E55C9558E55D95599204D0CA
:1002EE00D0D0E022C0E0C0D0C204C3E55A9556700B
:1002FE0014E55B9557700EE55C95587008E55D95B5
:10030E00597002D204D0D0D0E0221202F22004039F
:10031E000202D6221202F22004030202BA22C0E026
:10032E00C0F0C0D0C000C001C002C003C004C005F0
:10033E00E556855AF0A4F8A9F0E557855AF0A42998
:10034E00F9E435F0FAE556855BF0A429F9E5F03AC3
:10035E00FAE433FBE558855AF0A42AFAE5F03BFBA4
:10036E00E557855BF0A42AFAE5F03BFBE556855C84
:10037E00F0A42AFAE5F03BFBE559855AF0A42BFBD5
:10038E00ACF07D00E558855BF0A42BFBE5F03CFC62
:10039E00E43DFDE557855CF0A42BFBE5F03CFCE469
:1003AE003DFDE556855DF0A42BFBE5F03CFCE43D00
:1003BE00FDEC4DFCE559855BF0A445F04CFCE55891
:1003CE00855CF0A445F04CFCE557855DF0A445F046
:1003DE004CFCE559855CF0A445F04CFCE558855D78
:1003EE00F0A445F04CFCE559855DF0A445F04CFCBD
:1003FE008B598A5889578856D204BC0002C204D041
:10040E0005D004D003D002D001D000D0D0D0F0D08F
:10041E00E022C0E0C0D0C000C001C002C003C004D2
:10042E00E55A455B455C455D7005D20402048BC2FE
:10043E00047C20E4F8F9FAFBC3E55633F556E5578C
:10044E0033F557E55833F558E55933F559E833F890
:10045E00E933F9EA33FAEB33FBC3E8955AE9955BD6
:10046E00EA955CEB955D4013E8955AF8E9955BF9D2
:10047E00EA955CFAEB955DFB435601DCBBD004D0EC
:10048E0003D002D001D000D0D0D0E02285565A85BC
:10049E00575B85585C85595D22E556C55AF556E57C
:1004AE0057C55BF557E558C55CF558E559C55DF57B
:1004BE005922C28EE589540F4420F589758DFD753C
:1004CE008BFDE5874480F587D28E7598522285354F
:1004DE00568536577558007559001201CEE55F5492
:1004EE000F2430120512E55EC4540F24301205128B
:1004FE00E55E540F2430120512740D120512740AA3
:10050E00120512223099FDC299F59922E58954F00F
:10051E004401F589758CFD758A5AD2A9D28C227543
:10052E008CFD758A5AB2953275C80075CDF575CCAD
:10053E002775CBF575CA27E4F563F564D2ADD2CA3B
:10054E0022C2CFC0E0C0D00563E56370020564E54A
:10055E0063B4E86EE564B40369E5A1F5A1755900CD
:10056E0075580085A35785A256755A88755B137505
:10057E005C00755D0012032C755A00755B10755C7E
:10058E0000755D00120420755AE8755B03755C00FA
:10059E00755D0012032C755A0C755B30755C007519
:1005AE005D00120420755A16755B00755C00755D52
:1005BE00001202738556358557361206481204DC32
:1005CE008003020613D2020537B2E8E4F563F56440
:1005DE00E530B401051206A58016B403051206A572
:1005EE00800EB402051206798006B4040312067951
:1005FE00E56520E80B2401E56520E804240180026E
:10060E002499D4F565D0D0D0E032759AAB759BF6AF
:10061E00759C01759D0175A10075A18022781E79CA
:10062E004A7AFADAFED9FAD8F622C0F9A4B099922B
:10063E0082F880908883C6A1868EC0E0C0D09006D6
:10064E0038E536540F93F593E535C4540F93F59270
:10065E00E535540F93F591D0D0D0E02220F90B124E
:10066E00062B20F905D20330F9FD22E541C3940390
:10067E0050027400F550E5412403500274FFF55208
:10068E00E535C39550400AE535C3955260025004D6
:10069E0022D28022C28022E541C3940A5002740005
:1006AE00F554E535C395544026E541C394035002F5
:1006BE007400F550E5412403500274FFF552E53500
:1006CE00C39550400DE535C395526002500722D2B6
:1006DE008022D28022C28022D28C7B0A12062BDB91
:1006EE00FBC28C2275817F12061812051A1205366E
:1006FE00D2AF1201731204C0C202C20075439675C6
:10070E00453C7547DC75491E7530007531007537EF
:10071E0000753500753900753B3C753D96753FDCAF
:10072E00754100755E00C0E07401141201B3D0E093
:10073E00C083C082C0E090003F1201A6D0E0D082FC
:10074E00D083C0E07401141201B1D0E0C083C08226
:10075E00C0E09000501201A6D0E0D082D083E531E7
:10076E00B4002D12066A20031EC0E0740C14120190
:10077E00B1D0E0C000A8441201B8D000C000A84318
:10078E001201B8D00080D71206E60531C20380CE22
:10079E00C0E07401141201B1D0E0C083C082C0E089
:1007AE009000611201A6D0E0D082D083E531B40171
:1007BE002412066A200315C0E0740C141201B1D085
:1007CE00E0C000A8451201B8D00080E01206E60590
:1007DE0031C20380D7C0E07401141201B1D0E0C061
:1007EE0083C082C0E09000721201A6D0E0D082D009
:1007FE0083E531B4022D12066A20031EC0E0740C8C
:10080E00141201B1D0E0C000A8481201B8D000C047
:10081E0000A8471201B8D00080D71206E60531C2F3
:10082E000380CEC0E07401141201B1D0E0C083C0C9
:10083E0082C0E09000831201A6D0E0D082D083E582
:10084E0031B4032412066A200315C0E0740C14128E
:10085E0001B1D0E0C000A8491201B8D00080E0126A
:10086E0006E60531C20380D7C0E07401141201B34D
:10087E00D0E0C083C082C0E09000941201A6D0E008
:10088E00D082D083C0E07401141201B1D0E0C083D5
:10089E00C082C0E090002E1201A6D0E0D082D0839C
:1008AE0020FBFD12062B20FBF7C0E0740114120191
:1008BE00B3D0E0C083C082C0E09000A51201A6D0E4
:1008CE00E0D082D083D200800020FA0CC280E530C6
:1008DE00B4003120000580F1020AC41206E6C0E021
:1008EE007401141201B3D0E0C083C082C0E0900046
:1008FE00B71201A6D0E0D082D08305307539647569
:10090E00370080C520F81420FA14E530B4013E8576
:10091E003D41AA35E541B4020880E9020ABB020A4C
:10092E00C44004800080DD1206E6C0E0740114129B
:10093E0001B3D0E0C083C082C0E09000C91201A60E
:10094E00D0E0D082D083053075391480B720F811ED
:10095E0020FA11E530B4027E783CE537B4004780CA
:10096E0009020ABB020AC4020AC77932E535B4018C
:10097E000A0530753964753700805B40EA1206E669
:10098E00C0E07401141201B3D0E0C083C082C0E095
:10099E009000DB1201A6D0E0D082D08305307539ED
:1009AE006475370080304002800280A11206E6C0D6
:1009BE00E07401141201B3D0E0C083C082C0E09095
:1009CE0000DB1201A6D0E0D082D0830530753964E9
:1009DE0075370002095B20F81420FA14E530B403D1
:1009EE003E853F41AA35E541B4020880E9020ABBC3
:1009FE00020AC44004800080DD1206E6C0E07401E5
:100A0E00141201B3D0E0C083C082C0E09000ED129A
:100A1E0001A6D0E0D082D083053075391480B7207E
:100A2E00F81420FA0EE530B4043B782DE537B40007
:100A3E000880EC020AC4020ABB4002800280E01267
:100A4E0006E6C0E07401141201B3D0E0C083C08288
:100A5E00C0E09000FF1201A6D0E0D082D083053016
:100A6E0075390080BA20F84520FA4BC280E530B4C3
:100A7E00050C853B41AA35E541B4022480E71206F8
:100A8E00E6C0E07401141201B3D0E0C083C082C08E
:100A9E00E09000A51201A6D0E0D082D0830208D744
:100AAE0040098000753000C20080BA80B8753000F1
:100ABE007539000206F20206F2C0E074011412014A
:100ACE00B3D0E0C083C082C0E09001111201A6D065
:0D0ADE00E0D082D08320F80280DF0206F213
:00000001FF
