:0300000002073FB5
:0100030032CA
:03000B0002056C7F
:0100130032BA
:01001B0032B2
:0100230032AA
:03002B0002058E3D
:10002E0020202020202020202020202020202020C2
:10003E000053656C65637420506172616D65746503
:10004E007200536F616B2054656D703A207878782A
:10005E00204300536F616B2054696D653A207878A8
:10006E002020730052666C772054656D703A2078AC
:10007E00787820430052666C772054696D653A207B
:10008E00787820207300526561647920746F205354
:10009E007461727421200053746174652030205095
:1000AE006C616365686F6C640053746174652031B4
:1000BE0020506C616365686F6C6400537461746585
:1000CE00203220506C616365686F6C6400537461FC
:1000DE007465203320506C616365686F6C640053E7
:1000EE0074617465203420506C616365686F6C6454
:1000FE00005374617465203520506C616365686FC0
:10010E006C640041424F52540054494D453A2058B8
:10011E00582054454D503A205858005265666C6F21
:10012E007720436F6D706C657465210052535420B7
:0E013E00546F2042616B6520416761696E005D
:10014C00C00078BE00000000D8FAD00022C000C069
:10015C0001793278DFD8FED9FADAF6D001D0002254
:10016C00D29112014CC29112014C22A2E79281A2AF
:10017C00E69283A2E59285A2E4928712016CA2E337
:10018C009281A2E29283A2E19285A2E0928712016F
:10019C006C22D297020177C297020177C291C002FA
:1001AC007A28120159D00274331201A3743312014C
:1001BC00A374321201A374281201A3740C1201A3AC
:1001CC0074011201A3C0027A02120159D00222E476
:1001DC0093600612019EA380F622444044800201E3
:1001EC00A3C0E0E8C4540F443012019EE8540F44FD
:0701FC003012019ED0E02249
:10020300C0E0C0D0C000C001C002C05CC05BC05A27
:10021300C059E4F561F562F563F564F5657A20E5A7
:100223005CA2E779047859E633F608D9FA790578B8
:1002330061E636D4F608D9F9DAE5D059D05AD05B5D
:10024300D05CD002D001D000D0D0D0E022C0E0C03A
:10025300D0C000C001C002C065C064C063C062C03A
:10026300617A207905C37865E613C0D030E70224AC
:10027300D030E30224FDF618D0D0D9EC7904785CB1
:10028300E613F618D9FADADBD205E5617002C20586
:10029300D061D062D063D064D065D002D001D000E9
:1002A300D0D0D0E022C0E0C0D0E559255DF559E5B6
:1002B3005A355EF55AE55B355FF55BE55C3560F510
:1002C3005C9205D0D0D0E022C0E0C0D0C3E5599500
:1002D3005DF559E55A955EF55AE55B955FF55BE586
:1002E3005C9560F55C9205D0D0D0E022C0E0C0D030
:1002F300C3E559955DE55A955EE55B955FE55C95CC
:10030300609205D0D0D0E022C0E0C0D0C3E55D95B7
:1003130059E55E955AE55F955BE560955C9205D07E
:10032300D0D0E022C0E0C0D0C205C3E55D955970CE
:1003330014E55E955A700EE55F955B7008E5609570
:100343005C7002D205D0D0D0E0221203272005032F
:1003530002030B221203272005030202EF22C0E04F
:10036300C0F0C0D0C000C001C002C003C004C005BB
:10037300E559855DF0A4F8A9F0E55A855DF0A42957
:10038300F9E435F0FAE559855EF0A429F9E5F03A88
:10039300FAE433FBE55B855DF0A42AFAE5F03BFB69
:1003A300E55A855EF0A42AFAE5F03BFBE559855F43
:1003B300F0A42AFAE5F03BFBE55C855DF0A42BFB9A
:1003C300ACF07D00E55B855EF0A42BFBE5F03CFC27
:1003D300E43DFDE55A855FF0A42BFBE5F03CFCE42E
:1003E3003DFDE5598560F0A42BFBE5F03CFCE43DC5
:1003F300FDEC4DFCE55C855EF0A445F04CFCE55B53
:10040300855FF0A445F04CFCE55A8560F0A445F007
:100413004CFCE55C855FF0A445F04CFCE55B856036
:10042300F0A445F04CFCE55C8560F0A445F04CFC81
:100433008B5C8A5B895A8859D205BC0002C205D0FD
:1004430005D004D003D002D001D000D0D0D0F0D05A
:10045300E022C0E0C0D0C000C001C002C003C0049D
:10046300E55D455E455F45607005D2050204C0C287
:10047300057C20E4F8F9FAFBC3E55933F559E55A4D
:1004830033F55AE55B33F55BE55C33F55CE833F84C
:10049300E933F9EA33FAEB33FBC3E8955DE9955E9B
:1004A300EA955FEB95604013E8955DF8E9955EF991
:1004B300EA955FFAEB9560FB435901DCBBD004D0AE
:1004C30003D002D001D000D0D0D0E02285595D8581
:1004D3005A5E855B5F855C6022E559C55DF559E52C
:1004E3005AC55EF55AE55BC55FF55BE55CC560F52E
:1004F3005C22C28EE589540F4420F589758DFD7504
:100503008BFDE5874480F587D28E75985222853519
:100513005985365A755B00755C00120203745412D8
:100523000551743D120551E562540F4430120551D3
:10053300E561C4540F4430120551E561540F443052
:10054300120551740D120551740A12055122309986
:10055300FDC299F59922E58954F04401F589758C1A
:10056300FD758A5AD2A9D28C22758CFD758A5AB22E
:10057300953275C80075CDF575CC2775CBF575CA61
:1005830027E4F566F567D2ADD2CA22C2CFC0E0C078
:10059300D00566E56670020567E566B4E86DE56754
:1005A300B4036875A100755C00755B0085A35A856B
:1005B300A259755D88755E13755F0075600012033F
:1005C30061755D00755E10755F00756000120455FE
:1005D300755DE8755E03755F0075600012036175F4
:1005E3005D0C755E30755F00756000120455755DB6
:1005F30016755E00755F007560001202A885593597
:10060300855A361205111206868003020651D2025C
:10061300053AB2E8E4F566F567E530B4010512067C
:10062300FB8016B40305120717800EB402051206E9
:10063300CF8006B404031206CFE56820E80B24013B
:10064300E56820E804240180022499D4F568D0D019
:10065300D0E032759AAB759BF6759C01759D01755B
:10066300A10075A18022781E794A7AFADAFED9FAB6
:10067300D8F622C0F9A4B0999282F880908883C6F4
:10068300A1868EC0E0C0D085355985365A12020343
:10069300900676E562540F93F593E561C4540F9386
:1006A300F592E561540F93F591D0D0D0E02220F973
:1006B3000B12066920F905D20330F9FD2220FA0B4B
:1006C30012066920FA05D20430FAFD22E544C394E8
:1006D3000250027400F553E5442402500274FFF5FE
:1006E30055E535C39553400AE535C395556002502A
:1006F3000422D28022C28022E544C394145002749F
:1007030000F557E535C39557400402071422D280FC
:1007130022C28022E544C3940050027400F557E5D9
:1007230035C39557400402073022D28022C280226B
:10073300D28C7B07120669DBFBC28C2275817F1288
:100743000656120559120575D2AF1201A81204F507
:10075300C202C200C28075469675483C754ADC7574
:100763004C1E753000753100753A00753500753CC7
:1007730000753E3C7540967542DC7544007561001A
:10078300C0E07401141201E8D0E0C083C082C0E06D
:1007930090003F1201DBD0E0D082D083C0E074012F
:1007A300141201E6D0E0C083C082C0E09000501272
:1007B30001DBD0E0D082D083E531B400651206B10D
:1007C30020035685465985475A755B00755C0012B0
:1007D3000203C0E0740C141201E6D0E0C000A8626A
:1007E3001201EDD000C000A8611201EDD000120685
:1007F300C020040280C2C204E54620E80B20E904BD
:1008030024018011240A800D20E905C39401800589
:10081300C3940A8000F546809F1207330531C20353
:100823008096C0E07401141201E6D0E0C083C08258
:10083300C0E09000611201DBD0E0D082D083E531CB
:10084300B401561206B1200347854859755A0075FD
:100853005B00755C00120203C0E0740C141201E625
:10086300D0E0C000A8611201EDD00080D1C204E540
:100873004820E80B20E90424018011240A800D207C
:10088300E905C394018005C3940A8000F54880AE4E
:100893001207330531C20380A5C0E07401141201AD
:1008A300E6D0E0C083C082C0E09000721201DBD0CA
:1008B300E0D082D083E531B4025F1206B120035049
:1008C300854A59854B5A755B00755C00120203C05B
:1008D300E0740C141201E6D0E0C000A8621201ED2E
:1008E300D000C000A8611201EDD00080C8C204E5A9
:1008F3004A20E80B20E90424018011240A800D20FA
:10090300E905C394018005C3940A8000F54A80A5D4
:100913001207330531C203809CC0E0740114120135
:10092300E6D0E0C083C082C0E09000831201DBD038
:10093300E0D082D083E531B403561206B1200347D9
:10094300854C59755A00755B00755C00120203C033
:10095300E0740C141201E6D0E0C000A8611201EDAE
:10096300D00080D1C204E54C20E80B20E904240127
:100973008011240A800D20E905C394018005C394E6
:100983000A8000F54C80AE1207330531C20380A5FF
:10099300C0E07401141201E8D0E0C083C082C0E05B
:1009A3009000941201DBD0E0D082D083C0E07401C8
:1009B300141201E6D0E0C083C082C0E090002E1282
:1009C30001DBD0E0D082D08320B5FD12066920B5CB
:1009D300F7C0E07401141201E8D0E0C083C082C004
:1009E300E09000A51201DBD0E0D082D083D200805A
:1009F3000030B70CC280E530B4004D20000580F113
:100A0300020C86120733C0E07401141201E8D0E02F
:100A1300C083C082C0E09000B71201DBD0E0D08277
:100A2300D083C0E07401141201E6D0E0C083C08219
:100A3300C0E09001171201DBD0E0D082D0830530F3
:100A4300753C64753A0080A930FB1230B712E5306B
:100A5300B4015B854044E535B4960880EB020C7D18
:100A6300020C864002800280DF120733C0E074016B
:100A7300141201E8D0E0C083C082C0E09000C91224
:100A830001DBD0E0D082D083C0E07401141201E610
:100A9300D0E0C083C082C0E09001171201DBD0E038
:100AA300D082D0830530753C14753A00809A30FBB0
:100AB3001230B712E530B40207E53AB43C67800C54
:100AC300020B71020C7D020C86020C897932E5352A
:100AD300B4010B0530753C64753A00020B7140E9B3
:100AE300120733C0E07401141201E8D0E0C083C0E0
:100AF30082C0E09000DB1201DBD0E0D082D083C063
:100B0300E07401141201E6D0E0C083C082C0E0901B
:100B130001171201DBD0E0D082D0830530753C642D
:100B2300753A008049400280028083120733C0E097
:100B33007401141201E8D0E0C083C082C0E09000C9
:100B4300DB1201DBD0E0D082D083C0E07401141249
:100B530001E6D0E0C083C082C0E09001171201DB40
:100B6300D0E0D082D0830530753C64020AB130FBFB
:100B73001230B712E530B4035B854244E535B4DC8B
:100B83000880EB020C7D020C864002800280DF129B
:100B93000733C0E07401141201E8D0E0C083C082BF
:100BA300C0E09000ED1201DBD0E0D082D083C0E042
:100BB3007401141201E6D0E0C083C082C0E090014A
:100BC300171201DBD0E0D082D0830530753C147559
:100BD3003A00809A30FB1230B70CE530B40455E587
:100BE3003AB42D0880EE020C86020C7D400280028E
:100BF30080E2120733C0E07401141201E8D0E0C0B0
:100C030083C082C0E09000FF1201DBD0E0D082D02D
:100C130083C0E07401141201E6D0E0C083C082C037
:100C2300E09001171201DBD0E0D082D0830530754C
:100C33003C0080A030FB4330B749C280E530B405A7
:100C43000A853E44E535B43C2480E9120733C0E00D
:100C53007401141201E8D0E0C083C082C0E09001A7
:100C6300291201DBD0E0D082D083020CAD40028098
:100C730007753000C20080BC80BA753000753C0037
:100C830002073F02073FC0E07401141201E8D0E0FD
:100C9300C083C082C0E09001111201DBD0E0D0829A
:100CA300D08330FB0280DF02073FC0E074011412DF
:100CB30001E6D0E0C083C082C0E090013A1201DBBC
:0B0CC300D0E0D082D08330FBB180DF96
:00000001FF
