:03000000020747AD
:0100030032CA
:03000B0002056B80
:0100130032BA
:01001B0032B2
:0100230032AA
:03002B0002058D3E
:10002E0020202020202020202020202020202020C2
:10003E000053656C65637420506172616D65746503
:10004E007200536F616B2054656D703A207878782A
:10005E00204300536F616B2054696D653A207878A8
:10006E002020730052666C772054656D703A2078AC
:10007E00787820430052666C772054696D653A207B
:10008E00787820207300526561647920746F205354
:10009E007461727421200053746174652030205095
:1000AE006C616365686F6C640053746174652031B4
:1000BE0020506C616365686F6C6400537461746585
:1000CE00203220506C616365686F6C6400537461FC
:1000DE007465203320506C616365686F6C640053E7
:1000EE0074617465203420506C616365686F6C6454
:1000FE00005374617465203520506C616365686FC0
:10010E006C640041424F52540054494D453A2058B8
:10011E00582054454D503A205858005265666C6F21
:10012E007720436F6D706C657465210052535420B7
:0D013E00322042616B6520416761696E00EF
:10014B00C00078BE00000000D8FAD00022C000C06A
:10015B0001793278DFD8FED9FADAF6D001D0002255
:10016B00D29112014BC29112014B22A2E79281A2B2
:10017B00E69283A2E59285A2E4928712016BA2E339
:10018B009281A2E29283A2E19285A2E09287120170
:10019B006B22D297020176C297020176C291C002FE
:1001AB007A28120158D00274331201A2743312014F
:1001BB00A274321201A274281201A2740C1201A2B1
:1001CB0074011201A2C0027A02120158D00222E479
:1001DB0093600612019DA380F622444044800201E5
:1001EB00A2C0E0E8C4540F443012019DE8540F4400
:0701FB003012019DD0E0224B
:10020200C0E0C0D0C000C001C002C05CC05BC05A28
:10021200C059E4F561F562F563F564F5657A20E5A8
:100222005CA2E779047859E633F608D9FA790578B9
:1002320061E636D4F608D9F9DAE5D059D05AD05B5E
:10024200D05CD002D001D000D0D0D0E022C0E0C03B
:10025200D0C000C001C002C065C064C063C062C03B
:10026200617A207905C37865E613C0D030E70224AD
:10027200D030E30224FDF618D0D0D9EC7904785CB2
:10028200E613F618D9FADADBD205E5617002C20587
:10029200D061D062D063D064D065D002D001D000EA
:1002A200D0D0D0E022C0E0C0D0E559255DF559E5B7
:1002B2005A355EF55AE55B355FF55BE55C3560F511
:1002C2005C9205D0D0D0E022C0E0C0D0C3E5599501
:1002D2005DF559E55A955EF55AE55B955FF55BE587
:1002E2005C9560F55C9205D0D0D0E022C0E0C0D031
:1002F200C3E559955DE55A955EE55B955FE55C95CD
:10030200609205D0D0D0E022C0E0C0D0C3E55D95B8
:1003120059E55E955AE55F955BE560955C9205D07F
:10032200D0D0E022C0E0C0D0C205C3E55D955970CF
:1003320014E55E955A700EE55F955B7008E5609571
:100342005C7002D205D0D0D0E02212032620050331
:1003520002030A221203262005030202EE22C0E053
:10036200C0F0C0D0C000C001C002C003C004C005BC
:10037200E559855DF0A4F8A9F0E55A855DF0A42958
:10038200F9E435F0FAE559855EF0A429F9E5F03A89
:10039200FAE433FBE55B855DF0A42AFAE5F03BFB6A
:1003A200E55A855EF0A42AFAE5F03BFBE559855F44
:1003B200F0A42AFAE5F03BFBE55C855DF0A42BFB9B
:1003C200ACF07D00E55B855EF0A42BFBE5F03CFC28
:1003D200E43DFDE55A855FF0A42BFBE5F03CFCE42F
:1003E2003DFDE5598560F0A42BFBE5F03CFCE43DC6
:1003F200FDEC4DFCE55C855EF0A445F04CFCE55B54
:10040200855FF0A445F04CFCE55A8560F0A445F008
:100412004CFCE55C855FF0A445F04CFCE55B856037
:10042200F0A445F04CFCE55C8560F0A445F04CFC82
:100432008B5C8A5B895A8859D205BC0002C205D0FE
:1004420005D004D003D002D001D000D0D0D0F0D05B
:10045200E022C0E0C0D0C000C001C002C003C0049E
:10046200E55D455E455F45607005D2050204BFC289
:10047200057C20E4F8F9FAFBC3E55933F559E55A4E
:1004820033F55AE55B33F55BE55C33F55CE833F84D
:10049200E933F9EA33FAEB33FBC3E8955DE9955E9C
:1004A200EA955FEB95604013E8955DF8E9955EF992
:1004B200EA955FFAEB9560FB435901DCBBD004D0AF
:1004C20003D002D001D000D0D0D0E02285595D8582
:1004D2005A5E855B5F855C6022E559C55DF559E52D
:1004E2005AC55EF55AE55BC55FF55BE55CC560F52F
:1004F2005C22C28EE589540F4420F589758DFD7505
:100502008BFDE5874480F587D28E7598522285351A
:100512005985365A755B00755C00120202745412DA
:100522000550743D120550E562540F4430120550D7
:10053200E561C4540F4430120550E561540F443054
:10054200120550740D120550740A1205502230998A
:10055200FDC299F59922E58954F04401F589758C1B
:10056200FD758A5AD2A9D28C22758CFD758A5AB22F
:10057200953275C80075CDF575CC2775CBF575CA62
:1005820027E4F566F567D2ADD2CA22C2CFC0E0C079
:10059200D00566E56670020567E566B4E86DE56755
:1005A200B4036875A100755C00755B0085A35A856C
:1005B200A259755D88755E13755F00756000120340
:1005C20060755D00755E10755F0075600012045401
:1005D200755DE8755E03755F0075600012036075F6
:1005E2005D0C755E30755F00756000120454755DB8
:1005F20016755E00755F007560001202A785593599
:10060200855A361205101206858003020650D20260
:10061200053AB2E8E4F566F567E530B4010512067D
:10062200FA8016B403051206FA800EB40205120609
:10063200CE8006B404031206CEE56820E80B24013E
:10064200E56820E804240180022499D4F568D0D01A
:10065200D0E032759AAB759BF6759C01759D01755C
:10066200A10075A18022781E794A7AFADAFED9FAB7
:10067200D8F622C0F9A4B0999282F880908883C6F5
:10068200A1868EC0E0C0D085355985365A12020245
:10069200900675E562540F93F593E561C4540F9388
:1006A200F592E561540F93F591D0D0D0E02220F974
:1006B2000B12066820F905D20330F9FD2220FB0B4C
:1006C20012066820FB05D20430FBFD22E544C394E8
:1006D2000350027400F553E5442403500274FFF5FD
:1006E20055E535C39553400AE535C395556002502B
:1006F2000422D28022C28022E544C3940A500274AA
:1007020000F557E535C395574026E544C394035099
:10071200027400F553E5442403500274FFF555E5D5
:1007220035C39553400DE535C395556002500722F8
:10073200D28022D28022C28022D28C7B071206680B
:10074200DBFBC28C2275817F1206551205581205F9
:1007520074D2AF1201A71204F4C202C20075469607
:1007620075483C754ADC754C1E7530007531007554
:100772003A00753500753C00753E3C7540967542F1
:10078200DC754400756100C0E07401141201E7D009
:10079200E0C083C082C0E090003F1201DAD0E0D016
:1007A20082D083C0E07401141201E5D0E0C083C09E
:1007B20082C0E09000501201DAD0E0D082D083E50E
:1007C20031B400631206B020035485465985475A56
:1007D200755B00755C00120202C0E0740C14120119
:1007E200E5D0E0C000A8621201ECD000C000A86110
:1007F2001201ECD0001206BF20040280C2C204E53E
:100802004620E80B20E9042401800F240A800B20F3
:10081200E90494018004940A8000F54680DD120701
:100822003B0531C2038098C0E07401141201E5D087
:10083200E0C083C082C0E09000611201DAD0E0D053
:1008420082D083E531B401541206B02003458548B5
:1008520059755A00755B00755C00120202C0E074A3
:100862000C141201E5D0E0C000A8611201ECD00026
:1008720080D1C204E54820E80B20E9042401800F5E
:10088200240A800B20E90494018004940A8000F574
:100892004880DD12073B0531C20380A7C0E0740126
:1008A200141201E5D0E0C083C082C0E09000721251
:1008B20001DAD0E0D082D083E531B4025D1206B015
:1008C20020034E854A59854B5A755B00755C0012B0
:1008D2000202C0E0740C141201E5D0E0C000A8626C
:1008E2001201ECD000C000A8611201ECD00080C857
:1008F200C204E54A20E80B20E9042401800F240AFF
:10090200800B20E90494018004940A8000F54A8057
:10091200DD12073B0531C203809EC0E07401141250
:1009220001E5D0E0C083C082C0E09000831201DA0A
:10093200D0E0D082D083E531B403541206B0200354
:1009420045854C59755A00755B00755C00120202B0
:10095200C0E0740C141201E5D0E0C000A8611201DD
:10096200ECD00080D1C204E54C20E80B20E904243D
:1009720001800F240A800B20E90494018004940A68
:100982008000F54C80DD12073B0531C20380A7C011
:10099200E07401141201E7D0E0C083C082C0E0908D
:1009A20000941201DAD0E0D082D083C0E074011446
:1009B2001201E5D0E0C083C082C0E090002E120197
:1009C200DAD0E0D082D08320B7FD12066820B7F7D4
:1009D200C0E07401141201E7D0E0C083C082C0E01D
:1009E2009000A51201DAD0E0D082D083D20080003C
:1009F20030FA0CC280E530B4004D20000580F102CF
:100A02000C8B12073BC0E07401141201E7D0E0C066
:100A120083C082C0E09000B71201DAD0E0D082D069
:100A220083C0E07401141201E5D0E0C083C082C02B
:100A3200E09001171201DAD0E0D082D08305307540
:100A42003C64753A0080A930F81430FA14E530B4E9
:100A5200015A854044AA35E544B4020880E9020CF3
:100A620082020C8B4004800080DD12073BC0E074E0
:100A720001141201E7D0E0C083C082C0E09000C937
:100A82001201DAD0E0D082D083C0E07401141201E6
:100A9200E5D0E0C083C082C0E09001171201DAD035
:100AA200E0D082D0830530753C14809B30F814303E
:100AB200FA14E530B40209783CE53AB40067800CD8
:100AC200020B73020C82020C8B020C8E7932E5351A
:100AD200B4010B0530753C64753A00020B7340E9B2
:100AE20012073BC0E07401141201E7D0E0C083C0DA
:100AF20082C0E09000DB1201DAD0E0D082D083C065
:100B0200E07401141201E5D0E0C083C082C0E0901D
:100B120001171201DAD0E0D082D0830530753C642F
:100B2200753A00804C40028002808112073BC0E08F
:100B32007401141201E7D0E0C083C082C0E09000CB
:100B4200DB1201DAD0E0D082D083C0E0740114124B
:100B520001E5D0E0C083C082C0E09001171201DA43
:100B6200D0E0D082D0830530753C64753A00020A29
:100B7200AE30F81430FA14E530B4035A854244AA70
:100B820035E544B4020880E9020C82020C8B400471
:100B9200800080DD12073BC0E07401141201E7D02F
:100BA200E0C083C082C0E09000ED1201DAD0E0D054
:100BB20082D083C0E07401141201E5D0E0C083C08A
:100BC20082C0E09001171201DAD0E0D082D0830512
:100BD20030753C14809B30F81430FA0EE530B404C2
:100BE20057782DE53AB4000880EC020C8B020C8297
:100BF2004002800280E012073BC0E074011412013F
:100C0200E7D0E0C083C082C0E09000FF1201DAD0DA
:100C1200E0D082D083C0E07401141201E5D0E0C0BC
:100C220083C082C0E09001171201DAD0E0D082D0F6
:100C3200830530753C00809E30F84530FA4BC28007
:100C4200E530B4050C853E44AA35E544B40224805F
:100C5200E712073BC0E07401141201E7D0E0C08341
:100C6200C082C0E09001291201DAD0E0D082D083A4
:100C7200020CB240098000753000C20080BA80B810
:100C8200753000753C00020747020747C0E0740157
:100C9200141201E7D0E0C083C082C0E090011112BB
:100CA20001DAD0E0D082D08330F80280DF02074739
:100CB200C0E07401141201E5D0E0C083C082C0E03C
:100CC20090013A1201DAD0E0D082D08330F8B180BC
:010CD200DF42
:00000001FF
