:03000000020A33BE
:0100030032CA
:03000B0002059D4E
:0100130032BA
:01001B0032B2
:0100230032AA
:03002B000205BF0C
:10002E0020202020202020202020202020202020C2
:10003E0000507265736574733A203120322033207C
:10004E00340053656C65637420506172616D657424
:10005E00657200536F616B2054656D703A2078782D
:10006E0078204300536F616B2054696D653A207898
:10007E00782020730052666C772054656D703A209C
:10008E0078787820430052666C772054696D653A13
:10009E0020787820207300526561647920746F2077
:1000AE0053746172742120002D2D2D2D2D537461EA
:1000BE007465302D2D2D2D2D002D2D2D2D2D5374A0
:1000CE00617465312D2D2D2D2D002D2D2D2D2D53A2
:1000DE0074617465322D2D2D2D2D002D2D2D2D2D70
:1000EE005374617465332D2D2D2D2D002D2D2D2D39
:1000FE002D5374617465342D2D2D2D2D002D2D2D28
:10010E002D2D5374617465352D2D2D2D2D002A2A1C
:10011E002A2A2A41424F5254212A2A2A2A2A005494
:10012E00494D453A58585854454D503A585858002C
:10013E005265666C6F7720436F6D706C65746521C8
:10014E000052535420322042616B65204167616931
:10015E006E005265666C6F772053746F70706564B5
:0F016E0021200054494D453A0054454D503A0068
:10017D00C00078BE00000000D8FAD00022C000C038
:10018D0001793278DFD8FED9FADAF6D001D0002223
:10019D00D29112017DC29112017D22A2E79281A21C
:1001AD00E69283A2E59285A2E4928712019DA2E3D5
:1001BD009281A2E29283A2E19285A2E0928712013E
:1001CD009D22D2970201A8C2970201A8C291C00236
:1001DD007A2812018AD00274331201D474331201B9
:1001ED00D474321201D474281201D4740C1201D4B7
:1001FD0074011201D4C0027A0212018AD00222E4E3
:10020D009360061201CFA380F62244404480020180
:10021D00D4C0E0E8C4540F44301201CFE8540F4469
:07022D00301201CFD0E022E6
:10023400C0E0C0D0C000C001C002C05EC05DC05CF0
:10024400C05BE4F563F564F565F566F5677A20E56A
:100254005EA2E77904785BE633F608D9FA79057883
:1002640063E636D4F608D9F9DAE5D05BD05CD05D24
:10027400D05ED002D001D000D0D0D0E022C0E0C007
:10028400D0C000C001C002C067C066C065C064C001
:10029400637A207905C37867E613C0D030E7022477
:1002A400D030E30224FDF618D0D0D9EC7904785E7E
:1002B400E613F618D9FADADBD206E5637002C20651
:1002C400D063D064D065D066D067D002D001D000AE
:1002D400D0D0D0E022C0E0C0D0E55B255FF55BE57F
:1002E4005C3560F55CE55D3561F55DE55E3562F5CF
:1002F4005E9206D0D0D0E022C0E0C0D0C3E55B95CA
:100304005FF55BE55C9560F55CE55D9561F55DE544
:100314005E9562F55E9206D0D0D0E022C0E0C0D0F7
:10032400C3E55B955FE55C9560E55D9561E55E958C
:10033400629206D0D0D0E022C0E0C0D0C3E55F9581
:100344005BE560955CE561955DE562955E9206D03E
:10035400D0D0E022C0E0C0D0C206C3E55F955B7098
:1003640014E560955C700EE561955D7008E5629535
:100374005E7002D206D0D0D0E022120358200603C9
:1003840002033C2212035820060302032022C0E089
:10039400C0F0C0D0C000C001C002C003C004C0058A
:1003A400E55B855FF0A4F8A9F0E55C855FF0A4291E
:1003B400F9E435F0FAE55B8560F0A429F9E5F03A53
:1003C400FAE433FBE55D855FF0A42AFAE5F03BFB34
:1003D400E55C8560F0A42AFAE5F03BFBE55B85610A
:1003E400F0A42AFAE5F03BFBE55E855FF0A42BFB65
:1003F400ACF07D00E55D8560F0A42BFBE5F03CFCF2
:10040400E43DFDE55C8561F0A42BFBE5F03CFCE4F8
:100414003DFDE55B8562F0A42BFBE5F03CFCE43D8F
:10042400FDEC4DFCE55E8560F0A445F04CFCE55D1B
:100434008561F0A445F04CFCE55C8562F0A445F0D0
:100444004CFCE55E8561F0A445F04CFCE55D8562FD
:10045400F0A445F04CFCE55E8562F0A445F04CFC4C
:100464008B5E8A5D895C885BD206BC0002C206D0C2
:1004740005D004D003D002D001D000D0D0D0F0D029
:10048400E022C0E0C0D0C000C001C002C003C0046C
:10049400E55F4560456145627005D2060204F1C21C
:1004A400067C20E4F8F9FAFBC3E55B33F55BE55C15
:1004B40033F55CE55D33F55DE55E33F55EE833F811
:1004C400E933F9EA33FAEB33FBC3E8955FE9956066
:1004D400EA9561EB95624013E8955FF8E99560F958
:1004E400EA9561FAEB9562FB435B01DCBBD004D077
:1004F40003D002D001D000D0D0D0E022855B5F854C
:100504005C60855D61855E6222E55BC55FF55BE5E8
:100514005CC560F55CE55DC561F55DE55EC562F5EC
:100524005E22C28EE589540F4420F589758DFD75D0
:100534008BFDE5874480F587D28E759852228535E8
:100544005B85365C755D00755E001202347454126E
:100554000582743D120582E564540F44301205820D
:10056400E563C4540F4430120582E563540F4430EC
:10057400120582740D120582740A120582223099C2
:10058400FDC299F59922E58954F04401F589758CE9
:10059400FD758A5AD2A9D28C22758CFD758A5AB2FD
:1005A400953275C80075CDF575CC2775CBF575CA30
:1005B40027E4F568F569D2ADD2CA22C2CFC0E0C043
:1005C400D00568E56870020569E568B4E86DE56919
:1005D400B4036875A100755E00755D0085A35C8534
:1005E400A25B755F88756013756100756200120304
:1005F40092755F0075601075610075620012048663
:10060400755FE87560037561007562001203927589
:100614005F0C756030756100756200120486755F49
:10062400167560007561007562001202D9855B352C
:10063400855C361205421208D18003020682D2027A
:10064400053AB2E8E4F568F569E530B40105120944
:10065400608016B4030512097C800EB402051209E9
:10066400348006B40403120934E56A20E80B24013B
:10067400E56A20E804240180022499D4F56AD0D0E4
:10068400D0E032759AAB759BF7759C01759D027528
:10069400A10075A18022781E794A7AFADAFED9FA85
:1006A400D8F622C0F9A4B0999282F880908883C6C3
:1006B400A1868E9006A7E56645676004D2EF8002A6
:1006C400C2EF30FB2FE563540F93F591E563C454F7
:1006D4000F93F592E564540F93F593E564C4540FB6
:1006E40093F594E565540F93F58EE565C4540F9323
:1006F400F58F8024E566540F93F591E566C4540F95
:1007040093F592E567540F93F593E567C4540F93FB
:10071400F594758EFF758FFF227804B4031B22E5D0
:1007240031B40006E56BB4031022B40206E56BB4E1
:10073400030722E56BB4020122C3E56333F563E5E5
:100744006433F564E56533F565E56633F566E567B9
:1007540033F567D8E4EF4563F563056BD32278047A
:10076400C3E56713F567E56613F566E56513F56597
:10077400E56413F564E56313F563D8E4E56B60039E
:10078400156BD322780F794A7AFADAFED9FAD8F6B9
:1007940022439B54439C01539CAB539DFE2220B7A0
:1007A4003F12078820B73930B7FD12076212028161
:1007B400E531B40008855B48855C498021B40108B3
:1007C400855B4A855C4B8016B40208855B4C855C6E
:1007D4004D800BB40308855B4E855C4F8000C322BB
:1007E400C292C294C296C2A0A2A282A482A682B0DD
:1007F4005002C322120788A2A282A482A682B05009
:1008040002C322D292D294D296D2A0C29220A2073C
:100814007F0130A2FDD32220A4077F0230A4FDD3A0
:100824002220A6077F0330A6FDD32220B0077F0A2B
:1008340030B0FDD322D292C29420A2077F0430A20A
:10084400FDD32220A4077F0530A4FDD32220A607D0
:100854007F0630A6FDD32220B0077F0B30B0FDD336
:1008640022D294C29620A2077F0730A2FDD3222071
:10087400A4077F0830A4FDD32220A6077F0930A651
:10088400FDD32220B0077F0C30B0FDD322D296C214
:10089400A020A2077F0E30A2FDD32220A4077F0050
:1008A40030A4FDD32220A6077F0F30A6FDD322203B
:1008B400B0077F0D30B0FDD322D2A0C322C0F9A46B
:1008C400B0999282F880908883C6A1868EC0E0C0D9
:1008D400D085355B85365C85375D1202349008C15E
:1008E400E565C4540F93F58FE565540F93F58EE5D4
:1008F40064C4540F93F594E564540F93F593E5633E
:10090400C4540F93F592E563540F93F591D0D0D06E
:10091400E02220B40B12069A20B405D20330B4FDB1
:100924002220B30B12069A20B305D20430B3FD2261
:10093400E544C3940250027400F555E54424025082
:100944000274FFF557E535C39555400AE535C3955F
:10095400576002500422D28022C28022E544C3940C
:100964001450027400F559E535C395594004020941
:100974007922D28022C28022E544C39404500274B6
:1009840000F559E535C39559400402099522D280F2
:1009940022C28022D28C7B0712069ADBFBC28C22F5
:1009A400C0E0740114120217D0E0C083C082C0E01A
:1009B40090017112020CD0E0D082D083853A5B851D
:1009C4003B5C755D00755E00120234C0E074061471
:1009D400120217D0E0C000A86412021ED000C000AA
:1009E400A86312021ED000C0E0740A14120217D0C9
:1009F400E0C083C082C0E090017712020CD0E0D046
:100A040082D08385355B85365C755D00755E00122A
:100A14000234C0E0740D14120217D0E0C000A864C0
:100A240012021ED000C000A86312021ED00022755C
:100A3400817F12068712058A1205A6D2AF1201D948
:100A4400120526C202C200C205C280C28CE47530FF
:100A540000753100753A00753500753C00753E3CF3
:100A64007540967542DC754400756300755B0075CE
:100A74005C00755D00755E00754896F549754A3CE5
:100A8400F54B754CDCF54D754E1EF54FC0E0740109
:100A940014120219D0E0C083C082C0E0900050124A
:100AA400020CD0E0D082D083C0E07401141202178B
:100AB400D0E0C083C082C0E090006112020CD0E09C
:100AC400D082D083C205756B0030B23EE531B400EC
:100AD4003C12091620033985485B85495C755D0025
:100AE400755E00120234C0E0740C14120217D0E0D8
:100AF400C000A86412021ED000C000A86312021E27
:100B0400D00012092520045B8009020A33020B9AE3
:100B1400020B8B1207A250B120050CD2057400F50C
:100B240063F564F565F56612071D509D1202818513
:100B34005B48855C4985485B85495C755D00755EED
:100B440000120234C0E0740C14120217D0E0C0008A
:100B5400A86412021ED000C000A86312021ED000B6
:100B6400020ACDC204E54820E80B20E904240180F0
:100B740011240A800D20E905C394018005C3940A59
:100B84008000F548020ACD1209980531C203C20556
:100B9400756B00020ACDC0E0740114120217D0E094
:100BA400C083C082C0E090007212020CD0E0D082F8
:100BB400D08330B236E531B4013412091620033142
:100BC400854A5B755C00755D00755E00120234C079
:100BD400E0740C14120217D0E0C000A86312021EC5
:100BE400D000120925200450020BF8020A33020C2B
:100BF4006F020C601207A250B920050CD2057400D4
:100C0400F563F564F565F56612071D50A5120281BA
:100C1400855B4A854A5B755C00755D00755E0012F4
:100C24000234C0E0740C14120217D0E0C000A863B0
:100C340012021ED000020BB6C204E54A20E80B20C3
:100C4400E90424018011240A800D20E905C39401DC
:100C54008005C3940A8000F54A020BB61209980570
:100C640031C203C205756B00020BB6C0E0740114F7
:100C7400120217D0E0C083C082C0E0900083120249
:100C84000CD0E0D082D08330B23FE531B4023D12C3
:100C9400091620033A854C5B854D5C755D00755ED5
:100CA40000120234C0E0740C14120217D0E0C00029
:100CB400A86412021ED000C000A86312021ED00055
:100CC40012092520045C020CD6020A33020D5902D3
:100CD4000D4A1207A250B020050CD2057400F5632A
:100CE400F564F565F56612071D509C120281855B5B
:100CF4004C855C4D854C5B854D5C755D00755E0077
:100D0400120234C0E0740C14120217D0E0C000A820
:100D14006412021ED000C000A86312021ED000029A
:100D24000C8BC204E54C20E80B20E904240180115B
:100D3400240A800D20E905C394018005C3940A8028
:100D440000F54C020C8B1209980531C203C20575DB
:100D54006B00020C8BC0E0740114120217D0E0C0C7
:100D640083C082C0E090009412020CD0E0D082D004
:100D74008330B235E531B4033312091620033085CC
:100D84004E5B755C00755D00755E00120234C0E058
:100D9400740C14120217D0E0C000A86312021ED013
:100DA4000012092520044F8009020A33020E2D0285
:100DB4000E1E1207A250BA20050CD2057400F5636A
:100DC400F564F565F56612071D50A6120281855B70
:100DD4004E854E5B755C00755D00755E00120234D5
:100DE400C0E0740C14120217D0E0C000A863120211
:100DF4001ED000020D75C204E54E20E80B20E90464
:100E040024018011240A800D20E905C39401800582
:100E1400C3940A8000F54E020D751209980531C27B
:100E240003C205756B00020D75C0E0740114120253
:100E340019D0E0C083C082C0E09000A512020CD09B
:100E4400E0D082D083C0E0740114120217D0E0C055
:100E540083C082C0E090002E12020CD0E0D082D079
:100E64008320B5FD12069A20B5F7C0E07401141270
:100E74000219D0E0C083C082C0E09000B612020C18
:100E8400D0E0D082D083D200800030B70CC280E59D
:100E940030B4001520000580F10210941209980561
:100EA40030753C64753A0080E130B23730B737E5CD
:100EB40030B40148C0E0740114120219D0E0C083B8
:100EC400C082C0E09000C712020CD0E0D082D08370
:100ED4001209A4120F4B854844E535C395444009D3
:100EE400020EF302108B0210944002800280BA12A8
:100EF40009980530753C14753A0080AD30B237302E
:100F0400B737E530B4022CC0E0740114120219D0D2
:100F1400E0C083C082C0E09000D812020CD0E0D0C0
:100F240082D0831209A4854A46E53AC395464020F7
:100F3400020F5A020F6502108B021094E53AB43C7A
:100F44000040030210D322E535B432012240ED22E1
:100F54004002800280A61209980530753C64020F95
:100F64000030B23430B734E530B40345C0E0740126
:100F740014120219D0E0C083C082C0E09000E912CC
:100F8400020CD0E0D082D0831209A4854C44E5350C
:100F9400C395444009020FA802108B02109440022A
:100FA400800280BD1209980530753C14753A0080A2
:100FB400B030B23730B731E530B40442C0E0740128
:100FC40014120219D0E0C083C082C0E09000FA126B
:100FD400020CD0E0D082D0831209A4854E46E53AB3
:100FE400C395464009020FF802109402108B400288
:100FF400800280BD1209980530753C0080B330B280
:101004003330B733C280E530B4052F853E44E5352F
:10101400C0E0740114120219D0E0C083C082C0E0A1
:1010240090010B12020CD0E0D082D0831209A4B438
:101034003C4680CA02108B021094120998C0E074D6
:101044000114120219D0E0C083C082C0E090013EB6
:1010540012020CD0E0D082D083C0E07401141202DA
:1010640017D0E0C083C082C0E090014F12020CD0C0
:10107400E0D082D08302112940028008753000C27A
:1010840000021002021002753000753C00020A339F
:10109400C0E0740114120219D0E0C083C082C0E021
:1010A40090016012020CD0E0D082D083C0E07401C1
:1010B40014120217D0E0C083C082C0E090014F1226
:1010C400020CD0E0D082D083C28030B25580FBC005
:1010D400E0740114120219D0E0C083C082C0E09011
:1010E400011C12020CD0E0D082D083C0E074011441
:1010F400120217D0E0C083C082C0E090014F1202F8
:101104000CD0E0D082D0837C0A12099812069A127D
:10111400069A12069A12069A12069ADCEC30B20269
:1011240080FB020A337C0512099812069A12069A69
:1011340012069A12069A12069ADCEC30B20280FB6E
:0311440002108B0B
:00000001FF
