:030000000205E90D
:0100030032CA
:03000B0002049953
:0100130032BA
:01001B0032B2
:0100230032AA
:03002B000204BB11
:10002E00536F616B2054656D703A20787878204359
:10003E0000536F616B2054696D653A207878782093
:10004E0043005265666C6F772054656D703A207868
:10005E007873005265666C6F772054696D653A202F
:10006E0078787300526561647920746F20537461DF
:05007E00727421200056
:10008300C00078BE00000000D8FAD00022C000C033
:1000930001793278DFD8FED9FADAF6D001D000221E
:1000A300D291120083C29112008322A2E79281A20D
:1000B300E69283A2E59285A2E492871200A3A2E3CB
:1000C3009281A2E29283A2E19285A2E0928712003A
:1000D300A322D2970200AEC2970200AEC291C00221
:1000E3007A28120090D00274331200DA74331200AB
:1000F300DA74321200DA74281200DA740C1200DA9D
:1001030074011200DAC0027A02120090D00222E4D3
:100113009360061200D5A380F62244404480020077
:10012300DAC0E0E8C4540F44301200D5E8540F4459
:07013300301200D5D0E022DC
:10013A00C0E0C0D0C000C001C002C059C058C057FA
:10014A00C056E4F55EF55FF560F561F5627A20E583
:10015A0059A2E779047856E633F608D9FA79057888
:10016A005EE636D4F608D9F9DAE5D056D057D05833
:10017A00D059D002D001D000D0D0D0E022C0E0C007
:10018A00D0C000C001C002C062C061C060C05FC010
:10019A005E7A207905C37862E613C0D030E702247C
:1001AA00D030E30224FDF618D0D0D9EC790478597E
:1001BA00E613F618D9FADADBD204E55E7002C20455
:1001CA00D05ED05FD060D061D062D002D001D000C2
:1001DA00D0D0D0E022C0E0C0D0E556255AF556E589
:1001EA0057355BF557E558355CF558E559355DF5F2
:1001FA00599204D0D0D0E022C0E0C0D0C3E55695D1
:10020A005AF556E557955BF557E558955CF558E567
:10021A0059955DF5599204D0D0D0E022C0E0C0D003
:10022A00C3E556955AE557955BE558955CE55995AA
:10023A005D9204D0D0D0E022C0E0C0D0C3E55A9588
:10024A0056E55B9557E55C9558E55D95599204D05E
:10025A00D0D0E022C0E0C0D0C204C3E55A9556709F
:10026A0014E55B9557700EE55C95587008E55D9549
:10027A00597002D204D0D0D0E02212025E200403C8
:10028A000202422212025E20040302022622C0E077
:10029A00C0F0C0D0C000C001C002C003C004C00585
:1002AA00E556855AF0A4F8A9F0E557855AF0A4292D
:1002BA00F9E435F0FAE556855BF0A429F9E5F03A58
:1002CA00FAE433FBE558855AF0A42AFAE5F03BFB39
:1002DA00E557855BF0A42AFAE5F03BFBE556855C19
:1002EA00F0A42AFAE5F03BFBE559855AF0A42BFB6A
:1002FA00ACF07D00E558855BF0A42BFBE5F03CFCF7
:10030A00E43DFDE557855CF0A42BFBE5F03CFCE4FD
:10031A003DFDE556855DF0A42BFBE5F03CFCE43D94
:10032A00FDEC4DFCE559855BF0A445F04CFCE55825
:10033A00855CF0A445F04CFCE557855DF0A445F0DA
:10034A004CFCE559855CF0A445F04CFCE558855D0C
:10035A00F0A445F04CFCE559855DF0A445F04CFC51
:10036A008B598A5889578856D204BC0002C204D0D5
:10037A0005D004D003D002D001D000D0D0D0F0D024
:10038A00E022C0E0C0D0C000C001C002C003C00467
:10039A00E55A455B455C455D7005D2040203F7C228
:1003AA00047C20E4F8F9FAFBC3E55633F556E55721
:1003BA0033F557E55833F558E55933F559E833F825
:1003CA00E933F9EA33FAEB33FBC3E8955AE9955B6B
:1003DA00EA955CEB955D4013E8955AF8E9955BF967
:1003EA00EA955CFAEB955DFB435601DCBBD004D081
:1003FA0003D002D001D000D0D0D0E02285565A8551
:10040A00575B85585C85595D22E556C55AF556E510
:10041A0057C55BF557E558C55CF558E559C55DF50F
:10042A005922C28EE589540F4420F589758DFD75D0
:10043A008BFDE5874480F587D28E759852228535E3
:10044A005685365775580075590012013AE55F54BA
:10045A000F243012047EE55EC4540F243012047E49
:10046A00E55E540F243012047E740D12047E740A61
:10047A0012047E223099FDC299F59922E58954F039
:10048A004401F589758CFD758A5AD2A9D28C2275D8
:10049A008CFD758A5AB2953275C80075CDF575CC42
:1004AA002775CBF575CA27E4F563F564D2ADD2CAD0
:1004BA0022C2CFC0E0C0D00563E56370020564E5DF
:1004CA0063B4E80DE564B4030812054B12044880CE
:1004DA0003020519D2020537B2E8B28CE4F563F5D6
:1004EA0064E530B401051205A88016B403051205A7
:1004FA00A8800EB4020512057C8006B40403120516
:10050A007CE56520E804240180022499D4F565D0AD
:10051A00D0D0E032759AAB759BF6759C01759D013A
:10052A0075A10022781E794A7AFADAFED9FAD8F643
:10053A0022C0F9A4B0999282F880908883C6A186D5
:10054A008EC0E0C0D090053BE536540F93F593E595
:10055A0035C4540F93F592E535540F93F591D0D0E5
:10056A00D0E02220F90B12052E20F905D20330F92A
:10057A00FD22E541C3940350027400F550E541247D
:10058A0003500274FFF552E535C39550400AE5352C
:10059A00C395526002500422D28022C28022E541D1
:1005AA00C3940A50027400F554E535C395544026A5
:1005BA00E541C3940350027400F550E54124035009
:1005CA000274FFF552E535C39550400DE535C395E4
:1005DA00526002500722D28022D28022C280227523
:1005EA00817F12051E1204861204A2D2AF1200DF06
:1005FA0012042CC202C20075439675453C7547DC4D
:10060A0075491E75300075310075370075351E75D0
:10061A003900753B3C753D96753FDC754100755E4A
:10062A0000C0E074011412011FD0E0C083C082C070
:10063A00E090002E120112D0E0D082D083E531B4CE
:10064A00003012056D20031EC0E0740C1412011F45
:10065A00D0E0C000A85F120124D000C000A85E123A
:10066A000124D00080D7855E43855F440531C203EB
:10067A0080CBC0E074011412011FD0E0C083C08295
:10068A00C0E090003F120112D0E0D082D083E53161
:10069A00B4013012056D20031EC0E0740C1412015F
:1006AA001FD0E0C000A85F120124D000C000A85EDD
:1006BA00120124D00080D7855E45855F460531C288
:1006CA000380CBC0E074011412011FD0E0C083C0C4
:1006DA0082C0E0900050120112D0E0D082D083E5AF
:1006EA0031B4023012056D20031EC0E0740E1412DC
:1006FA00011FD0E0C000A85F120124D000C000A8EA
:10070A005E120124D00080D7855E47855F48053197
:10071A00C20380CBC0E074011412011FD0E0C08371
:10072A00C082C0E0900061120112D0E0D082D08372
:10073A00E531B4033912056D200327C0E0740E14A5
:10074A0012011FD0E0C000A85F120124D000C0002F
:10075A00A85E120124D000C000A849120124D000CA
:10076A0080CE855E49855F4A0531C20380C2C0E0FA
:10077A0074011412011FD0E0C083C082C0E090004F
:10078A0072120112D0E0D082D08320FBFD12052E16
:10079A0020FBF7D200800020FA0CC280E530B400BA
:1007AA001220000580F10208AE05307539647537EC
:1007BA000080E420F81420FA14E530B4011F853DC6
:1007CA0041AA35E541B4020880E90208A50208AE4B
:1007DA004004800080DD053075391480D620F81178
:1007EA0020FA11E530B4023F783CE537B40028809E
:1007FA00090208A50208AE0208B17932E535B4014A
:10080A000A0530753964753700801C40EA05307571
:10081A00396475370080104002800280C005307547
:10082A00396475370080B620F81420FA14E530B41C
:10083A00031F853F41AA35E541B4020880E9020851
:10084A00A50208AE4004800080DD053075391480A9
:10085A00D620F84720FA4DE530B40416782DE5374E
:10086A00B4000280EC4002800280E605307539004F
:10087A0080DF20F82620FA2CC280E530B4050C85EA
:10088A003B41AA35E541B4020580E70207A14009C8
:10089A008000753000C20080D980D7753000753964
:0F08AA00000205E90205E920F80280FB0205E9DA
:00000001FF
