:03000000020A32BF
:0100030032CA
:03000B0002059D4E
:0100130032BA
:01001B0032B2
:0100230032AA
:03002B000205BF0C
:10002E0020202020202020202020202020202020C2
:10003E0000507265736574733A203120322033207C
:10004E00340053656C65637420506172616D657424
:10005E00657200536F616B2054656D703A2078782D
:10006E0078204300536F616B2054696D653A207898
:10007E00782020730052666C772054656D703A209C
:10008E0078787820430052666C772054696D653A13
:10009E0020787820207300526561647920746F2077
:1000AE0053746172742120002D2D2D2D2D537461EA
:1000BE007465302D2D2D2D2D002D2D2D2D2D5374A0
:1000CE00617465312D2D2D2D2D002D2D2D2D2D53A2
:1000DE0074617465322D2D2D2D2D002D2D2D2D2D70
:1000EE005374617465332D2D2D2D2D002D2D2D2D39
:1000FE002D5374617465342D2D2D2D2D002D2D2D28
:10010E002D2D5374617465352D2D2D2D2D002A2A1C
:10011E002A2A2A41424F5254212A2A2A2A2A005494
:10012E00494D453A58585854454D503A585858002C
:10013E005265666C6F7720436F6D706C65746521C8
:10014E000052535420322042616B65204167616931
:10015E006E005265666C6F772053746F70706564B5
:0F016E0021200054494D453A0054454D503A0068
:10017D00C00078BE00000000D8FAD00022C000C038
:10018D0001793278DFD8FED9FADAF6D001D0002223
:10019D00D29112017DC29112017D22A2E79281A21C
:1001AD00E69283A2E59285A2E4928712019DA2E3D5
:1001BD009281A2E29283A2E19285A2E0928712013E
:1001CD009D22D2970201A8C2970201A8C291C00236
:1001DD007A2812018AD00274331201D474331201B9
:1001ED00D474321201D474281201D4740C1201D4B7
:1001FD0074011201D4C0027A0212018AD00222E4E3
:10020D009360061201CFA380F62244404480020180
:10021D00D4C0E0E8C4540F44301201CFE8540F4469
:07022D00301201CFD0E022E6
:10023400C0E0C0D0C000C001C002C062C061C060E4
:10024400C05FE4F567F568F569F56AF56B7A20E552
:1002540062A2E77904785FE633F608D9FA7905787B
:1002640067E636D4F608D9F9DAE5D05FD060D06114
:10027400D062D002D001D000D0D0D0E022C0E0C003
:10028400D0C000C001C002C06BC06AC069C068C0F1
:10029400677A207905C3786BE613C0D030E702246F
:1002A400D030E30224FDF618D0D0D9EC790478627A
:1002B400E613F618D9FADADBD206E5677002C2064D
:1002C400D067D068D069D06AD06BD002D001D0009A
:1002D400D0D0D0E022C0E0C0D0E55F2563F55FE573
:1002E400603564F560E5613565F561E5623566F5AF
:1002F400629206D0D0D0E022C0E0C0D0C3E55F95C2
:1003040063F55FE5609564F560E5619565F561E524
:10031400629566F5629206D0D0D0E022C0E0C0D0EB
:10032400C3E55F9563E5609564E5619565E5629570
:10033400669206D0D0D0E022C0E0C0D0C3E5639579
:100344005FE5649560E5659561E56695629206D022
:10035400D0D0E022C0E0C0D0C206C3E563955F7090
:1003640014E5649560700EE56595617008E5669521
:10037400627002D206D0D0D0E022120358200603C5
:1003840002033C2212035820060302032022C0E089
:10039400C0F0C0D0C000C001C002C003C004C0058A
:1003A400E55F8563F0A4F8A9F0E5608563F0A4290E
:1003B400F9E435F0FAE55F8564F0A429F9E5F03A4B
:1003C400FAE433FBE5618563F0A42AFAE5F03BFB2C
:1003D400E5608564F0A42AFAE5F03BFBE55F8565FA
:1003E400F0A42AFAE5F03BFBE5628563F0A42BFB5D
:1003F400ACF07D00E5618564F0A42BFBE5F03CFCEA
:10040400E43DFDE5608565F0A42BFBE5F03CFCE4F0
:100414003DFDE55F8566F0A42BFBE5F03CFCE43D87
:10042400FDEC4DFCE5628564F0A445F04CFCE5610F
:100434008565F0A445F04CFCE5608566F0A445F0C4
:100444004CFCE5628565F0A445F04CFCE5618566ED
:10045400F0A445F04CFCE5628566F0A445F04CFC44
:100464008B628A618960885FD206BC0002C206D0B2
:1004740005D004D003D002D001D000D0D0D0F0D029
:10048400E022C0E0C0D0C000C001C002C003C0046C
:10049400E5634564456545667005D2060204F1C20C
:1004A400067C20E4F8F9FAFBC3E55F33F55FE56009
:1004B40033F560E56133F561E56233F562E833F8FD
:1004C400E933F9EA33FAEB33FBC3E89563E995645E
:1004D400EA9565EB95664013E89563F8E99564F948
:1004E400EA9565FAEB9566FB435F01DCBBD004D06B
:1004F40003D002D001D000D0D0D0E022855F638544
:10050400606485616585626622E55FC563F55FE5C4
:1005140060C564F560E561C565F561E562C566F5CC
:100524006222C28EE589540F4420F589758DFD75CC
:100534008BFDE5874480F587D28E759852228535E8
:100544005F8536607561007562001202347454125E
:100554000582743D120582E568540F443012058209
:10056400E567C4540F4430120582E567540F4430E4
:10057400120582740D120582740A120582223099C2
:10058400FDC299F59922E58954F04401F589758CE9
:10059400FD758A5AD2A9D28C22758CFD758A5AB2FD
:1005A400953275C80075CDF575CC2775CBF575CA30
:1005B40027E4F56CF56DD2ADD2CA22C2CFC0E0C03B
:1005C400D0056CE56C7002056DE56CB4E86DE56D05
:1005D400B4036875A10075620075610085A3608528
:1005E400A25F7563887564137565007566001203F0
:1005F4009275630075641075650075660012048653
:100604007563E87564037565007566001203927579
:10061400630C756430756500756600120486756335
:10062400167564007565007566001202D9855F351C
:100634008560361205421208CD8003020682D2027A
:10064400053AB2E8E4F56CF56DE530B4010512093C
:100654005F8016B4030512095F800EB40205120907
:10066400338006B40403120933E56E20E80B240139
:10067400E56E20E804240180022499D4F56ED0D0DC
:10068400D0E032759AAB759BF7759C01759D027528
:10069400A10075A18022781E794A7AFADAFED9FA85
:1006A400D8F622C0F9A4B0999282F880908883C6C3
:1006B400A1868E9006A7E56A456B6004D2EF80029E
:1006C400C2EF30FB2FE567540F93F591E567C454EF
:1006D4000F93F592E568540F93F593E568C4540FAE
:1006E40093F594E569540F93F58EE569C4540F931B
:1006F400F58F8024E56A540F93F591E56AC4540F8D
:1007040093F592E56B540F93F593E56BC4540F93F3
:10071400F594758EFF758FFF227804E531B40006D9
:10072400E56FB4031022B40206E56FB4030722E5B3
:100734006FB4020122C3E56733F567E56833F568F2
:10074400E56933F569E56A33F56AE56B33F56BD82A
:10075400E4EF4567F567056FD3227804C3E56B13AF
:10076400F56BE56A13F56AE56913F569E56813F550
:1007740068E56713F567D8E4E56F6003156FD32266
:10078400780F794A7AFADAFED9FAD8F622439B54DA
:10079400439C01539CAB539DFE2220B73F12078418
:1007A40020B73930B7FD12075E120281E531B4007B
:1007B40008855F488560498021B40108855F4A85C2
:1007C400604B8016B40208855F4C85604D800BB485
:1007D4000308855F4E85604F8000C322C292C29495
:1007E400C296C2A0A2A282A482A682B05002C32250
:1007F400120784A2A282A482A682B05002C322D28B
:1008040092D294D296D2A0C29220A2077F0130A2A3
:10081400FDD32220A4077F0230A4FDD32220A60703
:100824007F0330A6FDD32220B0077F0A30B0FDD36A
:1008340022D292C29420A2077F0430A2FDD32220A8
:10084400A4077F0530A4FDD32220A6077F0630A687
:10085400FDD32220B0077F0B30B0FDD322D294C247
:100864009620A2077F0730A2FDD32220A4077F0889
:1008740030A4FDD32220A6077F0930A6FDD3222071
:10088400B0077F0C30B0FDD322D296C2A020A207BD
:100894007F0E30A2FDD32220A4077F0030A4FDD315
:1008A4002220A6077F0F30A6FDD32220B0077F0D9C
:1008B40030B0FDD322D2A0C322C0F9A4B099928251
:1008C400F880908883C6A1868EC0E0C0D085355F4D
:1008D4008536607561007562001202349008BDE5CA
:1008E40069C4540F93F58FE569540F93F58EE56849
:1008F400C4540F93F594E568540F93F593E567C4D6
:10090400540F93F592E567540F93F591D0D0D0E04E
:100914002220B40B12069A20B405D20330B4FD226F
:1009240020B30B12069A20B305D20430B3FD22E59E
:1009340044C3940250027400F555E5442402500265
:1009440074FFF557E535C39555400AE535C395570A
:100954006002500422D28022C28022E55C04B406E4
:10096400027400F55CE544C3955D50027400F559CA
:10097400E535C395594010E535C39544500CE55C05
:10098400C3955B40088009D28022C28022D2802293
:10099400C28022D28C7B0712069ADBFBC28C22C057
:1009A400E0740114120217D0E0C083C082C0E0904A
:1009B400017112020CD0E0D082D083853A5F853B6E
:1009C40060756100756200120234C0E0740614128E
:1009D4000217D0E0C000A86812021ED000C000A810
:1009E4006712021ED000C0E0740A14120217D0E08D
:1009F400C083C082C0E090017712020CD0E0D082A4
:100A0400D08385355F85366075610075620012029A
:100A140034C0E0740D14120217D0E0C000A86812AC
:100A2400021ED000C000A86712021ED000227581E9
:100A34007F12068712058A1205A6D2AF1201D912B7
:100A44000526C202C200C205C280C28CE4C290C2A2
:100A5400B1753000753100753A00753500753C008C
:100A6400753E3C7540967542DC75440075670075AB
:100A74005F00756000756100756200754896F54900
:100A8400754A3CF54B754CDCF54D754E1EF54FC063
:100A9400E0740114120219D0E0C083C082C0E09057
:100AA400005012020CD0E0D082D083C0E074011454
:100AB400120217D0E0C083C082C0E090006112022D
:100AC4000CD0E0D082D083C205756F0030B23EE511
:100AD40031B4003C12091520033985485F8549600B
:100AE400756100756200120234C0E0740C141202C5
:100AF40017D0E0C000A86812021ED000C000A8678A
:100B040012021ED00012092420045B8009020A325A
:100B1400020B9D020B8E12079E50B120050CD205CC
:100B24007400F567F568F569F56A12071D509D12A2
:100B34000281855F4885604985485F8549607561A4
:100B440000756200120234C0E0740C14120217D053
:100B5400E0C000A86812021ED000C000A8671202FC
:100B64001ED000020AD0C204E54820E80B20E904A4
:100B740024018011240A800D20E905C39401800515
:100B8400C3940A8000F548020AD01209970531C2BD
:100B940003C205756F00020AD0C0E074011412028A
:100BA40017D0E0C083C082C0E090007212020CD063
:100BB400E0D082D08330B236E531B4013412091565
:100BC400200331854A5F756000756100756200120B
:100BD4000234C0E0740C14120217D0E0C000A867FD
:100BE40012021ED000120924200450020BFB020A38
:100BF40032020C72020C6312079E50B920050CD20B
:100C0400057400F567F568F569F56A12071D50A5C6
:100C1400120281855F4A854A5F75600075610075BF
:100C24006200120234C0E0740C14120217D0E0C047
:100C340000A86712021ED000020BB9C204E54A20C4
:100C4400E80B20E90424018011240A800D20E90521
:100C5400C394018005C3940A8000F54A020BB912BB
:100C640009970531C203C205756F00020BB9C0E0D4
:100C7400740114120217D0E0C083C082C0E0900057
:100C84008312020CD0E0D082D08330B23FE531B47D
:100C9400023D12091520033A854C5F854D6075614C
:100CA40000756200120234C0E0740C14120217D0F2
:100CB400E0C000A86812021ED000C000A86712029B
:100CC4001ED00012092420045C020CD9020A32024C
:100CD4000D5C020D4D12079E50B020050CD2057418
:100CE40000F567F568F569F56A12071D509C120254
:100CF40081855F4C85604D854C5F854D60756100D5
:100D0400756200120234C0E0740C14120217D0E0B1
:100D1400C000A86812021ED000C000A86712021EFC
:100D2400D000020C8EC204E54C20E80B20E9042418
:100D3400018011240A800D20E905C394018005C3B4
:100D4400940A8000F54C020C8E1209970531C203F7
:100D5400C205756F00020C8EC0E0740114120217F4
:100D6400D0E0C083C082C0E090009412020CD0E0B6
:100D7400D082D08330B235E531B403331209152063
:100D84000330854E5F756000756100756200120264
:100D940034C0E0740C14120217D0E0C000A867122B
:100DA400021ED00012092420044F8009020A3202D4
:100DB4000E30020E2112079E50BA20050CD2057483
:100DC40000F567F568F569F56A12071D50A6120269
:100DD40081855F4E854E5F756000756100756200A8
:100DE400120234C0E0740C14120217D0E0C000A840
:100DF4006712021ED000020D78C204E54E20E80BF3
:100E040020E90424018011240A800D20E905C394FB
:100E1400018005C3940A8000F54E020D78120997EB
:100E24000531C203C205756F00020D78C0E074017C
:100E340014120219D0E0C083C082C0E09000A51251
:100E4400020CD0E0D082D083C0E0740114120217E7
:100E5400D0E0C083C082C0E090002E12020CD0E02B
:100E6400D082D08320B5FD12069A20B5F7C0E07475
:100E74000114120219D0E0C083C082C0E09000B611
:100E840012020CD0E0D082D083D200800030B70FA1
:100E9400C280E530753A00B4001E20000580EE02E1
:100EA40010AC120997755C00755B03755D14053011
:100EB400753C64753A0080D530B23730B737E530C9
:100EC400B40148C0E0740114120219D0E0C083C018
:100ED40082C0E09000C712020CD0E0D082D083120E
:100EE40009A3120F5A854844E535C39544400902C5
:100EF4000F020210A30210AC4002800280BA120951
:100F0400970530753C14753A0080AD30B23730B770
:100F140037E530B4022CC0E0740114120219D0E099
:100F2400C083C082C0E09000D812020CD0E0D0820E
:100F3400D0831209A3854A46E53AC3954640200268
:100F44000F69020F7D0210A30210ACE53AB43C0015
:100F540040030210F022E535B432012240ED224074
:100F640002800280A6120997755C00755B03755DAB
:100F74000A0530753C64020F0F30B23430B734E5E3
:100F840030B40345C0E0740114120219D0E0C083E8
:100F9400C082C0E09000E912020CD0E0D082D0837D
:100FA4001209A3854C44E535C395444009020FC09A
:100FB4000210A30210AC4002800280BD1209970502
:100FC40030753C14753A0080B030B23730B731E533
:100FD40030B40442C0E0740114120219D0E0C0839A
:100FE400C082C0E09000FA12020CD0E0D082D0831C
:100FF4001209A3854E46E53AC395464009021010EE
:101004000210AC0210A34002800280BD12099705B1
:1010140030753C0080B330B23330B733C280E53032
:10102400B4052F853E44E535C0E07401141202195D
:10103400D0E0C083C082C0E090010B12020CD0E06B
:10104400D082D0831209A3B43C4680CA0210A30202
:1010540010AC120997C0E0740114120219D0E0C058
:1010640083C082C0E090013E12020CD0E0D082D056
:1010740083C0E0740114120217D0E0C083C082C0A0
:10108400E090014F12020CD0E0D082D083021148CC
:1010940040028008753000C20002101A02101A754E
:1010A4003000753C00020A32D290C0E07401141280
:1010B4000219D0E0C083C082C0E090016012020C2B
:1010C400D0E0D082D083C0E0740114120217D0E0C3
:1010D400C083C082C0E090014F12020CD0E0D082E5
:1010E400D083120997C28030B25780FBD290C0E0FF
:1010F400740114120219D0E0C083C082C0E09001D0
:101104001C12020CD0E0D082D083C0E0740114120F
:101114000217D0E0C083C082C0E090014F12020CDD
:10112400D0E0D082D0837C0A12099712069A120664
:101134009A12069A12069A12069ADCEC30B20280CF
:10114400FB020A32D2B17C0512099712069A1206E2
:101154009A12069A12069A12069ADCEC30B20280AF
:04116400FB0210A3D7
:00000001FF
